{
  "contractName": "InvestZAP",
  "abi": [
    {
      "inputs": [],
      "payable": false,
      "stateMutability": "nonpayable",
      "type": "constructor"
    },
    {
      "anonymous": false,
      "inputs": [
        {
          "indexed": true,
          "internalType": "address",
          "name": "previousOwner",
          "type": "address"
        },
        {
          "indexed": true,
          "internalType": "address",
          "name": "newOwner",
          "type": "address"
        }
      ],
      "name": "OwnershipTransferred",
      "type": "event"
    },
    {
      "constant": true,
      "inputs": [],
      "name": "AAVE",
      "outputs": [
        {
          "internalType": "address",
          "name": "",
          "type": "address"
        }
      ],
      "payable": false,
      "stateMutability": "view",
      "type": "function"
    },
    {
      "constant": true,
      "inputs": [],
      "name": "APR",
      "outputs": [
        {
          "internalType": "address",
          "name": "",
          "type": "address"
        }
      ],
      "payable": false,
      "stateMutability": "view",
      "type": "function"
    },
    {
      "constant": true,
      "inputs": [],
      "name": "DYDX",
      "outputs": [
        {
          "internalType": "address",
          "name": "",
          "type": "address"
        }
      ],
      "payable": false,
      "stateMutability": "view",
      "type": "function"
    },
    {
      "constant": true,
      "inputs": [
        {
          "internalType": "address",
          "name": "",
          "type": "address"
        }
      ],
      "name": "aave",
      "outputs": [
        {
          "internalType": "address",
          "name": "",
          "type": "address"
        }
      ],
      "payable": false,
      "stateMutability": "view",
      "type": "function"
    },
    {
      "constant": true,
      "inputs": [
        {
          "internalType": "address",
          "name": "",
          "type": "address"
        }
      ],
      "name": "compound",
      "outputs": [
        {
          "internalType": "address",
          "name": "",
          "type": "address"
        }
      ],
      "payable": false,
      "stateMutability": "view",
      "type": "function"
    },
    {
      "constant": true,
      "inputs": [
        {
          "internalType": "address",
          "name": "",
          "type": "address"
        }
      ],
      "name": "dydx",
      "outputs": [
        {
          "internalType": "uint256",
          "name": "",
          "type": "uint256"
        }
      ],
      "payable": false,
      "stateMutability": "view",
      "type": "function"
    },
    {
      "constant": true,
      "inputs": [
        {
          "internalType": "address",
          "name": "",
          "type": "address"
        }
      ],
      "name": "fulcrum",
      "outputs": [
        {
          "internalType": "address",
          "name": "",
          "type": "address"
        }
      ],
      "payable": false,
      "stateMutability": "view",
      "type": "function"
    },
    {
      "constant": true,
      "inputs": [],
      "name": "isOwner",
      "outputs": [
        {
          "internalType": "bool",
          "name": "",
          "type": "bool"
        }
      ],
      "payable": false,
      "stateMutability": "view",
      "type": "function"
    },
    {
      "constant": true,
      "inputs": [],
      "name": "owner",
      "outputs": [
        {
          "internalType": "address",
          "name": "",
          "type": "address"
        }
      ],
      "payable": false,
      "stateMutability": "view",
      "type": "function"
    },
    {
      "constant": false,
      "inputs": [],
      "name": "renounceOwnership",
      "outputs": [],
      "payable": false,
      "stateMutability": "nonpayable",
      "type": "function"
    },
    {
      "constant": false,
      "inputs": [
        {
          "internalType": "address",
          "name": "newOwner",
          "type": "address"
        }
      ],
      "name": "transferOwnership",
      "outputs": [],
      "payable": false,
      "stateMutability": "nonpayable",
      "type": "function"
    },
    {
      "constant": false,
      "inputs": [
        {
          "internalType": "address",
          "name": "_new_APR",
          "type": "address"
        }
      ],
      "name": "set_new_APR",
      "outputs": [],
      "payable": false,
      "stateMutability": "nonpayable",
      "type": "function"
    },
    {
      "constant": true,
      "inputs": [
        {
          "internalType": "address",
          "name": "_token",
          "type": "address"
        }
      ],
      "name": "recommend",
      "outputs": [
        {
          "internalType": "enum InvestZAP.CurrentLender",
          "name": "",
          "type": "uint8"
        }
      ],
      "payable": false,
      "stateMutability": "view",
      "type": "function"
    },
    {
      "constant": true,
      "inputs": [
        {
          "internalType": "address",
          "name": "_token",
          "type": "address"
        }
      ],
      "name": "balanceDydx",
      "outputs": [
        {
          "internalType": "uint256",
          "name": "",
          "type": "uint256"
        }
      ],
      "payable": false,
      "stateMutability": "view",
      "type": "function"
    },
    {
      "constant": true,
      "inputs": [
        {
          "internalType": "address",
          "name": "_token",
          "type": "address"
        }
      ],
      "name": "balanceCompound",
      "outputs": [
        {
          "internalType": "uint256",
          "name": "",
          "type": "uint256"
        }
      ],
      "payable": false,
      "stateMutability": "view",
      "type": "function"
    },
    {
      "constant": true,
      "inputs": [
        {
          "internalType": "address",
          "name": "_token",
          "type": "address"
        }
      ],
      "name": "balanceFulcrum",
      "outputs": [
        {
          "internalType": "uint256",
          "name": "",
          "type": "uint256"
        }
      ],
      "payable": false,
      "stateMutability": "view",
      "type": "function"
    },
    {
      "constant": true,
      "inputs": [
        {
          "internalType": "address",
          "name": "_token",
          "type": "address"
        }
      ],
      "name": "balanceAave",
      "outputs": [
        {
          "internalType": "uint256",
          "name": "",
          "type": "uint256"
        }
      ],
      "payable": false,
      "stateMutability": "view",
      "type": "function"
    },
    {
      "constant": false,
      "inputs": [
        {
          "internalType": "address",
          "name": "_token",
          "type": "address"
        },
        {
          "internalType": "uint256",
          "name": "amount",
          "type": "uint256"
        }
      ],
      "name": "supplyDydx",
      "outputs": [
        {
          "internalType": "uint256",
          "name": "",
          "type": "uint256"
        }
      ],
      "payable": false,
      "stateMutability": "nonpayable",
      "type": "function"
    },
    {
      "constant": false,
      "inputs": [
        {
          "internalType": "address",
          "name": "_token",
          "type": "address"
        },
        {
          "internalType": "uint256",
          "name": "amount",
          "type": "uint256"
        }
      ],
      "name": "withdrawDydx",
      "outputs": [],
      "payable": false,
      "stateMutability": "nonpayable",
      "type": "function"
    },
    {
      "constant": true,
      "inputs": [
        {
          "internalType": "address",
          "name": "_token",
          "type": "address"
        }
      ],
      "name": "balance",
      "outputs": [
        {
          "internalType": "uint256",
          "name": "",
          "type": "uint256"
        }
      ],
      "payable": false,
      "stateMutability": "view",
      "type": "function"
    },
    {
      "constant": false,
      "inputs": [
        {
          "internalType": "address",
          "name": "_token",
          "type": "address"
        }
      ],
      "name": "approveToken",
      "outputs": [],
      "payable": false,
      "stateMutability": "nonpayable",
      "type": "function"
    },
    {
      "constant": false,
      "inputs": [
        {
          "internalType": "address",
          "name": "_token",
          "type": "address"
        }
      ],
      "name": "withdrawAll",
      "outputs": [],
      "payable": false,
      "stateMutability": "nonpayable",
      "type": "function"
    },
    {
      "constant": false,
      "inputs": [
        {
          "internalType": "address",
          "name": "_token",
          "type": "address"
        }
      ],
      "name": "rebalance",
      "outputs": [],
      "payable": false,
      "stateMutability": "nonpayable",
      "type": "function"
    },
    {
      "constant": false,
      "inputs": [
        {
          "internalType": "address",
          "name": "_token",
          "type": "address"
        },
        {
          "internalType": "uint256",
          "name": "amount",
          "type": "uint256"
        }
      ],
      "name": "supplyAave",
      "outputs": [],
      "payable": false,
      "stateMutability": "nonpayable",
      "type": "function"
    },
    {
      "constant": false,
      "inputs": [
        {
          "internalType": "address",
          "name": "_token",
          "type": "address"
        },
        {
          "internalType": "uint256",
          "name": "amount",
          "type": "uint256"
        }
      ],
      "name": "supplyFulcrum",
      "outputs": [],
      "payable": false,
      "stateMutability": "nonpayable",
      "type": "function"
    },
    {
      "constant": false,
      "inputs": [
        {
          "internalType": "address",
          "name": "_token",
          "type": "address"
        },
        {
          "internalType": "uint256",
          "name": "amount",
          "type": "uint256"
        }
      ],
      "name": "supplyCompound",
      "outputs": [],
      "payable": false,
      "stateMutability": "nonpayable",
      "type": "function"
    },
    {
      "constant": false,
      "inputs": [
        {
          "internalType": "address",
          "name": "_token",
          "type": "address"
        },
        {
          "internalType": "uint256",
          "name": "amount",
          "type": "uint256"
        }
      ],
      "name": "withdrawAave",
      "outputs": [],
      "payable": false,
      "stateMutability": "nonpayable",
      "type": "function"
    },
    {
      "constant": false,
      "inputs": [
        {
          "internalType": "address",
          "name": "_token",
          "type": "address"
        },
        {
          "internalType": "uint256",
          "name": "amount",
          "type": "uint256"
        }
      ],
      "name": "withdrawFulcrum",
      "outputs": [],
      "payable": false,
      "stateMutability": "nonpayable",
      "type": "function"
    },
    {
      "constant": false,
      "inputs": [
        {
          "internalType": "address",
          "name": "_token",
          "type": "address"
        },
        {
          "internalType": "uint256",
          "name": "amount",
          "type": "uint256"
        }
      ],
      "name": "withdrawCompound",
      "outputs": [],
      "payable": false,
      "stateMutability": "nonpayable",
      "type": "function"
    },
    {
      "constant": false,
      "inputs": [
        {
          "internalType": "address",
          "name": "token",
          "type": "address"
        },
        {
          "internalType": "address",
          "name": "cToken",
          "type": "address"
        }
      ],
      "name": "addCToken",
      "outputs": [],
      "payable": false,
      "stateMutability": "nonpayable",
      "type": "function"
    },
    {
      "constant": false,
      "inputs": [
        {
          "internalType": "address",
          "name": "token",
          "type": "address"
        },
        {
          "internalType": "address",
          "name": "iToken",
          "type": "address"
        }
      ],
      "name": "addIToken",
      "outputs": [],
      "payable": false,
      "stateMutability": "nonpayable",
      "type": "function"
    },
    {
      "constant": false,
      "inputs": [
        {
          "internalType": "address",
          "name": "token",
          "type": "address"
        },
        {
          "internalType": "address",
          "name": "aToken",
          "type": "address"
        }
      ],
      "name": "addAToken",
      "outputs": [],
      "payable": false,
      "stateMutability": "nonpayable",
      "type": "function"
    },
    {
      "constant": false,
      "inputs": [
        {
          "internalType": "address",
          "name": "token",
          "type": "address"
        },
        {
          "internalType": "uint256",
          "name": "dToken",
          "type": "uint256"
        }
      ],
      "name": "addDToken",
      "outputs": [],
      "payable": false,
      "stateMutability": "nonpayable",
      "type": "function"
    },
    {
      "constant": false,
      "inputs": [
        {
          "internalType": "address",
          "name": "_new_AAVE",
          "type": "address"
        }
      ],
      "name": "set_new_AAVE",
      "outputs": [],
      "payable": false,
      "stateMutability": "nonpayable",
      "type": "function"
    },
    {
      "constant": false,
      "inputs": [
        {
          "internalType": "address",
          "name": "_new_DYDX",
          "type": "address"
        }
      ],
      "name": "set_new_DYDX",
      "outputs": [],
      "payable": false,
      "stateMutability": "nonpayable",
      "type": "function"
    },
    {
      "constant": false,
      "inputs": [
        {
          "internalType": "contract IERC20",
          "name": "_TokenAddress",
          "type": "address"
        }
      ],
      "name": "inCaseTokenGetsStuck",
      "outputs": [],
      "payable": false,
      "stateMutability": "nonpayable",
      "type": "function"
    },
    {
      "constant": false,
      "inputs": [],
      "name": "inCaseETHGetsStuck",
      "outputs": [],
      "payable": false,
      "stateMutability": "nonpayable",
      "type": "function"
    }
  ],
  "bytecode": "0x60806040523480156200001157600080fd5b50620000226200099260201b60201c565b6000806101000a81548173ffffffffffffffffffffffffffffffffffffffff021916908373ffffffffffffffffffffffffffffffffffffffff1602179055506000809054906101000a900473ffffffffffffffffffffffffffffffffffffffff1673ffffffffffffffffffffffffffffffffffffffff16600073ffffffffffffffffffffffffffffffffffffffff167f8be0079c531659141344cd1fd0a4f28419497f9722a3daafe3b4186f6b6457e060405160405180910390a3739cad8ab10daa9af1a9d2b878541f41b697268eec600560006101000a81548173ffffffffffffffffffffffffffffffffffffffff021916908373ffffffffffffffffffffffffffffffffffffffff160217905550731e0447b19bb6ecfdae1e4ae1694b0c3659614e4e600760006101000a81548173ffffffffffffffffffffffffffffffffffffffff021916908373ffffffffffffffffffffffffffffffffffffffff1602179055507324a42fd28c976a61df5d00d0599c34c4f90748c8600660006101000a81548173ffffffffffffffffffffffffffffffffffffffff021916908373ffffffffffffffffffffffffffffffffffffffff16021790555062000216736b175474e89094c44da98b954eedeac495271d0f735d3a536e4d6dbd6114cc1ead35777bab948e36436200099a60201b60201c565b62000250730d8775f648430679a709e98d2b0cb6250d2887ef736c8c6b02e7b2be14d4fa6022dfd6d75921d90e4e6200099a60201b60201c565b6200028a73eeeeeeeeeeeeeeeeeeeeeeeeeeeeeeeeeeeeeeee734ddc2d193948926d02f9b1fe9e1daa0718270ed56200099a60201b60201c565b620002c4731985365e9f78359a9b6ad760e32412f4a445e86273158079ee67fce2f58472a96584a73c7ab9ac95c16200099a60201b60201c565b620002fe73a0b86991c6218b36c1d19d4a2e9eb0ce3606eb487339aa39c021dfbae8fac545936693ac917d5e75636200099a60201b60201c565b62000338732260fac5e5542a773aa44fbcfedf7c193bc2c59973c11b1268c1a384e55c48c2391d8d480264a3a7f46200099a60201b60201c565b6200037273e41d2489571d322189246dafa5ebde1f4699f49873b3319f5d18bc0d84dd1b4825dcde5d5f7266d4076200099a60201b60201c565b620003ac736b175474e89094c44da98b954eedeac495271d0f73fc1e690f61efd961294b3e1ce3313fbd8aa4f85d62000a6e60201b60201c565b620003e16e085d4780b73119b644ae5ecd22b376734da9b813057d04baef4e5800e36083717b4a034162000a6e60201b60201c565b6200041b73a0b86991c6218b36c1d19d4a2e9eb0ce3606eb48739ba00d6856a4edf4665bca2c2309936572473b7e62000a6e60201b60201c565b6200045573dac17f958d2ee523a2206206994597c13d831ec77371fc860f7d3a592a4a98740e39db31d25db65ae862000a6e60201b60201c565b6200048f7357ab1ec28d129707052df4df418d58a2d46d5f5173625ae63000f46200499120b906716420bd05924062000a6e60201b60201c565b620004c97380fb784b7ed66730e8b1dbd9820afd29931aab03737d2d3688df45ce7c552e19c27e007673da9204b862000a6e60201b60201c565b62000503730d8775f648430679a709e98d2b0cb6250d2887ef73e1ba0fb44ccb0d11b80f92f4f8ed94ca3ff51d0062000a6e60201b60201c565b6200053d73eeeeeeeeeeeeeeeeeeeeeeeeeeeeeeeeeeeeeeee733a3a65aab0dd2a17e3f1947ba16138cd37d08c0462000a6e60201b60201c565b6200057773514910771af9ca656af840dff83e8264ecf986ca73a64bd6c70cb9051f6a9ba1f163fdc07e0dfb5f8462000a6e60201b60201c565b620005b173dd974d5c2e2928dea5f71b9825b8b646686bd200739d91be44c06d373a8a226e1f3b146956083803eb62000a6e60201b60201c565b620005eb731985365e9f78359a9b6ad760e32412f4a445e8627371010a9d003445ac60c4e6a7017c1e89a477b43862000a6e60201b60201c565b62000625739f8f72aa9304c8b593d555f12ef6589cc3a579a2737deb5e830be29f91e298ba5ff1356bb7f814699862000a6e60201b60201c565b6200065f730f5d2fb29fb7d3cfee444a200298f468908cc942736fce4a401b6b80ace52baaefe4421bd188e76f6f62000a6e60201b60201c565b6200069973e41d2489571d322189246dafa5ebde1f4699f498736fb0855c404e09c47c3fbca25f08d4e41f9f062f62000a6e60201b60201c565b620006d373c011a73ee8576fb46f5e1c5751ca3b9fe0af2a6f73328c4c80bc7aca0834db37e6600a6c49e12da4de62000a6e60201b60201c565b6200070d732260fac5e5542a773aa44fbcfedf7c193bc2c59973fc4b8ed459e00e5400be803a9bb3954234fd50e362000a6e60201b60201c565b6200074773e41d2489571d322189246dafa5ebde1f4699f49873a7eb2bc82df18013ecc2a6c533fc29446442edee62000b4260201b60201c565b62000781731985365e9f78359a9b6ad760e32412f4a445e86273bd56e9477fc6997609cf45f84795efbdac642ff162000b4260201b60201c565b620007bb73dd974d5c2e2928dea5f71b9825b8b646686bd200731cc9567ea2eb740824a45f8026ccf8e46973234d62000b4260201b60201c565b620007f5732260fac5e5542a773aa44fbcfedf7c193bc2c59973ba9262578efef8b3aff7f60cd629d6cc8859c8b562000b4260201b60201c565b6200082f73a0b86991c6218b36c1d19d4a2e9eb0ce3606eb4873f013406a0b1d544238083df0b93ad0d2cbe0f65f62000b4260201b60201c565b6200086973eeeeeeeeeeeeeeeeeeeeeeeeeeeeeeeeeeeeeeee7377f973fcaf871459aa58cd81881ce453759281bc62000b4260201b60201c565b620008a3736b175474e89094c44da98b954eedeac495271d0f73493c57c4763932315a328269e1adad09653b908162000b4260201b60201c565b620008dd73514910771af9ca656af840dff83e8264ecf986ca731d496da96caf6b518b133736beca85d5c4f9cbc562000b4260201b60201c565b620009177357ab1ec28d129707052df4df418d58a2d46d5f517349f4592e641820e928f9919ef4abd92a719b4b4962000b4260201b60201c565b6200093e73eeeeeeeeeeeeeeeeeeeeeeeeeeeeeeeeeeeeeeee600062000c1660201b60201c565b6200096573a0b86991c6218b36c1d19d4a2e9eb0ce3606eb48600262000c1660201b60201c565b6200098c736b175474e89094c44da98b954eedeac495271d0f600362000c1660201b60201c565b62000d8b565b600033905090565b620009aa62000cb060201b60201c565b620009ec576040517f08c379a0000000000000000000000000000000000000000000000000000000008152600401620009e39062000d58565b60405180910390fd5b80600160008473ffffffffffffffffffffffffffffffffffffffff1673ffffffffffffffffffffffffffffffffffffffff16815260200190815260200160002060006101000a81548173ffffffffffffffffffffffffffffffffffffffff021916908373ffffffffffffffffffffffffffffffffffffffff1602179055505050565b62000a7e62000cb060201b60201c565b62000ac0576040517f08c379a000000000000000000000000000000000000000000000000000000000815260040162000ab79062000d58565b60405180910390fd5b80600360008473ffffffffffffffffffffffffffffffffffffffff1673ffffffffffffffffffffffffffffffffffffffff16815260200190815260200160002060006101000a81548173ffffffffffffffffffffffffffffffffffffffff021916908373ffffffffffffffffffffffffffffffffffffffff1602179055505050565b62000b5262000cb060201b60201c565b62000b94576040517f08c379a000000000000000000000000000000000000000000000000000000000815260040162000b8b9062000d58565b60405180910390fd5b80600260008473ffffffffffffffffffffffffffffffffffffffff1673ffffffffffffffffffffffffffffffffffffffff16815260200190815260200160002060006101000a81548173ffffffffffffffffffffffffffffffffffffffff021916908373ffffffffffffffffffffffffffffffffffffffff1602179055505050565b62000c2662000cb060201b60201c565b62000c68576040517f08c379a000000000000000000000000000000000000000000000000000000000815260040162000c5f9062000d58565b60405180910390fd5b80600460008473ffffffffffffffffffffffffffffffffffffffff1673ffffffffffffffffffffffffffffffffffffffff168152602001908152602001600020819055505050565b60008060009054906101000a900473ffffffffffffffffffffffffffffffffffffffff1673ffffffffffffffffffffffffffffffffffffffff1662000cfa6200099260201b60201c565b73ffffffffffffffffffffffffffffffffffffffff1614905090565b600062000d2560208362000d7a565b91507f4f776e61626c653a2063616c6c6572206973206e6f7420746865206f776e65726000830152602082019050919050565b6000602082019050818103600083015262000d738162000d16565b9050919050565b600082825260208201905092915050565b6137e08062000d9b6000396000f3fe608060405234801561001057600080fd5b50600436106102275760003560e01c8063811711c711610130578063b4ab7bd8116100b8578063da07af331161007c578063da07af3314610658578063e3d670d714610688578063f2fde38b146106b8578063f60a15ed146106d4578063fa09e630146106de57610227565b8063b4ab7bd81461058c578063bd30558e146105bc578063c043fca2146105da578063c205c6ef146105f8578063d88be3c01461062857610227565b80638f32d59b116100ff5780638f32d59b146104ea5780638f39cbfe14610508578063926021d714610524578063a5065b5f14610540578063a96214c21461055c57610227565b8063811711c714610478578063812adb06146104945780638a51f4c6146104b05780638da5cb5b146104cc57610227565b806346357473116101b3578063715018a611610182578063715018a6146103ea57806373f5d1e3146103f4578063770a25f7146104105780637891c0431461044057806380b2edd81461045c57610227565b8063463574731461036457806348ccda3c146103805780636ff0573a1461039e57806370c364bd146103ba57610227565b8063284dac23116101fa578063284dac23146102b05780632c332907146102e05780632c7a5ae4146102fc5780632e8d6e18146103185780633f0ed1dd1461033457610227565b8063146b9f701461022c5780631dc94f8c1461024857806321c281911461027857806328157bcb14610294575b600080fd5b61024660048036036102419190810190612b3b565b6106fa565b005b610262600480360361025d9190810190612b12565b6107c3565b60405161026f9190613467565b60405180910390f35b610292600480360361028d9190810190612b12565b6108b4565b005b6102ae60048036036102a99190810190612b77565b6109a8565b005b6102ca60048036036102c59190810190612b12565b610a37565b6040516102d7919061324d565b60405180910390f35b6102fa60048036036102f59190810190612b77565b610a6a565b005b61031660048036036103119190810190612b12565b610b00565b005b610332600480360361032d9190810190612bdc565b610b8b565b005b61034e60048036036103499190810190612b77565b610cf1565b60405161035b9190613467565b60405180910390f35b61037e60048036036103799190810190612b12565b610f74565b005b610388610fff565b604051610395919061324d565b60405180910390f35b6103b860048036036103b39190810190612b77565b611025565b005b6103d460048036036103cf9190810190612b12565b6112a5565b6040516103e1919061324d565b60405180910390f35b6103f26112d8565b005b61040e60048036036104099190810190612b77565b6113de565b005b61042a60048036036104259190810190612b12565b61150e565b6040516104379190613467565b60405180910390f35b61045a60048036036104559190810190612b77565b6115ff565b005b61047660048036036104719190810190612b12565b6116cd565b005b610492600480360361048d9190810190612b3b565b611a8a565b005b6104ae60048036036104a99190810190612b12565b611b53565b005b6104ca60048036036104c59190810190612b77565b611bde565b005b6104d4611d10565b6040516104e1919061324d565b60405180910390f35b6104f2611d39565b6040516104ff9190613328565b60405180910390f35b610522600480360361051d9190810190612b77565b611d97565b005b61053e60048036036105399190810190612b3b565b611ec9565b005b61055a60048036036105559190810190612b77565b611f92565b005b61057660048036036105719190810190612b12565b6120c2565b6040516105839190613467565b60405180910390f35b6105a660048036036105a19190810190612b12565b6121f6565b6040516105b39190613467565b60405180910390f35b6105c46122e7565b6040516105d1919061324d565b60405180910390f35b6105e261230d565b6040516105ef919061324d565b60405180910390f35b610612600480360361060d9190810190612b12565b612333565b60405161061f9190613467565b60405180910390f35b610642600480360361063d9190810190612b12565b61234b565b60405161064f9190613343565b60405180910390f35b610672600480360361066d9190810190612b12565b612488565b60405161067f919061324d565b60405180910390f35b6106a2600480360361069d9190810190612b12565b6124bb565b6040516106af9190613467565b60405180910390f35b6106d260048036036106cd9190810190612b12565b61254d565b005b6106dc6125a0565b005b6106f860048036036106f39190810190612b12565b6126ad565b005b610702611d39565b610741576040517f08c379a0000000000000000000000000000000000000000000000000000000008152600401610738906133fe565b60405180910390fd5b80600160008473ffffffffffffffffffffffffffffffffffffffff1673ffffffffffffffffffffffffffffffffffffffff16815260200190815260200160002060006101000a81548173ffffffffffffffffffffffffffffffffffffffff021916908373ffffffffffffffffffffffffffffffffffffffff1602179055505050565b6000600360008373ffffffffffffffffffffffffffffffffffffffff1673ffffffffffffffffffffffffffffffffffffffff16815260200190815260200160002060009054906101000a900473ffffffffffffffffffffffffffffffffffffffff1673ffffffffffffffffffffffffffffffffffffffff166370a08231306040518263ffffffff1660e01b815260040161085d919061324d565b60206040518083038186803b15801561087557600080fd5b505afa158015610889573d6000803e3d6000fd5b505050506040513d601f19601f820116820180604052506108ad9190810190612cbd565b9050919050565b60006108bf8261234b565b90506108ca826126ad565b60006108d5836124bb565b11156109a457600160048111156108e857fe5b8160048111156108f457fe5b141561090e5761090c82610907846124bb565b610cf1565b505b60048081111561091a57fe5b81600481111561092657fe5b141561093f5761093e82610939846124bb565b611bde565b5b6002600481111561094c57fe5b81600481111561095857fe5b1415610971576109708261096b846124bb565b6113de565b5b6003600481111561097e57fe5b81600481111561098a57fe5b14156109a3576109a28261099d846124bb565b610a6a565b5b5b5050565b6109b0611d39565b6109ef576040517f08c379a00000000000000000000000000000000000000000000000000000000081526004016109e6906133fe565b60405180910390fd5b80600460008473ffffffffffffffffffffffffffffffffffffffff1673ffffffffffffffffffffffffffffffffffffffff168152602001908152602001600020819055505050565b60016020528060005260406000206000915054906101000a900473ffffffffffffffffffffffffffffffffffffffff1681565b600660009054906101000a900473ffffffffffffffffffffffffffffffffffffffff1673ffffffffffffffffffffffffffffffffffffffff1663d2d0e066838360006040518463ffffffff1660e01b8152600401610aca939291906132ba565b600060405180830381600087803b158015610ae457600080fd5b505af1158015610af8573d6000803e3d6000fd5b505050505050565b610b08611d39565b610b47576040517f08c379a0000000000000000000000000000000000000000000000000000000008152600401610b3e906133fe565b60405180910390fd5b80600760006101000a81548173ffffffffffffffffffffffffffffffffffffffff021916908373ffffffffffffffffffffffffffffffffffffffff16021790555050565b610b93611d39565b610bd2576040517f08c379a0000000000000000000000000000000000000000000000000000000008152600401610bc9906133fe565b60405180910390fd5b60008173ffffffffffffffffffffffffffffffffffffffff166370a08231306040518263ffffffff1660e01b8152600401610c0d919061324d565b60206040518083038186803b158015610c2557600080fd5b505afa158015610c39573d6000803e3d6000fd5b505050506040513d601f19601f82011682018060405250610c5d9190810190612cbd565b90508173ffffffffffffffffffffffffffffffffffffffff1663a9059cbb33836040518363ffffffff1660e01b8152600401610c9a929190613268565b602060405180830381600087803b158015610cb457600080fd5b505af1158015610cc8573d6000803e3d6000fd5b505050506040513d601f19601f82011682018060405250610cec9190810190612bb3565b505050565b600080600460008573ffffffffffffffffffffffffffffffffffffffff1673ffffffffffffffffffffffffffffffffffffffff16815260200190815260200160002054905060606001604051908082528060200260200182016040528015610d7357816020015b610d60612865565b815260200190600190039081610d585790505b50905060405180604001604052803073ffffffffffffffffffffffffffffffffffffffff168152602001600081525081600081518110610daf57fe5b6020026020010181905250610dc2612895565b604051806080016040528060011515815260200160006001811115610de357fe5b815260200160006001811115610df557fe5b8152602001868152509050610e086128d5565b600081600001906008811115610e1a57fe5b90816008811115610e2757fe5b81525050600081602001818152505081816040018190525083816060018181525050308160a0019073ffffffffffffffffffffffffffffffffffffffff16908173ffffffffffffffffffffffffffffffffffffffff168152505060606001604051908082528060200260200182016040528015610ebe57816020015b610eab612941565b815260200190600190039081610ea35790505b5090508181600081518110610ecf57fe5b6020026020010181905250600760009054906101000a900473ffffffffffffffffffffffffffffffffffffffff1673ffffffffffffffffffffffffffffffffffffffff1663a67a6a4585836040518363ffffffff1660e01b8152600401610f379291906132f1565b600060405180830381600087803b158015610f5157600080fd5b505af1158015610f65573d6000803e3d6000fd5b50505050505050505092915050565b610f7c611d39565b610fbb576040517f08c379a0000000000000000000000000000000000000000000000000000000008152600401610fb2906133fe565b60405180910390fd5b80600560006101000a81548173ffffffffffffffffffffffffffffffffffffffff021916908373ffffffffffffffffffffffffffffffffffffffff16021790555050565b600660009054906101000a900473ffffffffffffffffffffffffffffffffffffffff1681565b6000600460008473ffffffffffffffffffffffffffffffffffffffff1673ffffffffffffffffffffffffffffffffffffffff168152602001908152602001600020549050606060016040519080825280602002602001820160405280156110a657816020015b611093612865565b81526020019060019003908161108b5790505b50905060405180604001604052803073ffffffffffffffffffffffffffffffffffffffff1681526020016000815250816000815181106110e257fe5b60200260200101819052506110f5612895565b60405180608001604052806001151581526020016000600181111561111657fe5b81526020016000600181111561112857fe5b815260200185815250905061113b6128d5565b60018160000190600881111561114d57fe5b9081600881111561115a57fe5b81525050600081602001818152505081816040018190525083816060018181525050308160a0019073ffffffffffffffffffffffffffffffffffffffff16908173ffffffffffffffffffffffffffffffffffffffff1681525050606060016040519080825280602002602001820160405280156111f157816020015b6111de612941565b8152602001906001900390816111d65790505b509050818160008151811061120257fe5b6020026020010181905250600760009054906101000a900473ffffffffffffffffffffffffffffffffffffffff1673ffffffffffffffffffffffffffffffffffffffff1663a67a6a4585836040518363ffffffff1660e01b815260040161126a9291906132f1565b600060405180830381600087803b15801561128457600080fd5b505af1158015611298573d6000803e3d6000fd5b5050505050505050505050565b60026020528060005260406000206000915054906101000a900473ffffffffffffffffffffffffffffffffffffffff1681565b6112e0611d39565b61131f576040517f08c379a0000000000000000000000000000000000000000000000000000000008152600401611316906133fe565b60405180910390fd5b600073ffffffffffffffffffffffffffffffffffffffff166000809054906101000a900473ffffffffffffffffffffffffffffffffffffffff1673ffffffffffffffffffffffffffffffffffffffff167f8be0079c531659141344cd1fd0a4f28419497f9722a3daafe3b4186f6b6457e060405160405180910390a360008060006101000a81548173ffffffffffffffffffffffffffffffffffffffff021916908373ffffffffffffffffffffffffffffffffffffffff160217905550565b6000600160008473ffffffffffffffffffffffffffffffffffffffff1673ffffffffffffffffffffffffffffffffffffffff16815260200190815260200160002060009054906101000a900473ffffffffffffffffffffffffffffffffffffffff1673ffffffffffffffffffffffffffffffffffffffff1663a0712d68836040518263ffffffff1660e01b81526004016114789190613467565b602060405180830381600087803b15801561149257600080fd5b505af11580156114a6573d6000803e3d6000fd5b505050506040513d601f19601f820116820180604052506114ca9190810190612cbd565b1461150a576040517f08c379a00000000000000000000000000000000000000000000000000000000081526004016115019061339e565b60405180910390fd5b5050565b6000600260008373ffffffffffffffffffffffffffffffffffffffff1673ffffffffffffffffffffffffffffffffffffffff16815260200190815260200160002060009054906101000a900473ffffffffffffffffffffffffffffffffffffffff1673ffffffffffffffffffffffffffffffffffffffff166370a08231306040518263ffffffff1660e01b81526004016115a8919061324d565b60206040518083038186803b1580156115c057600080fd5b505afa1580156115d4573d6000803e3d6000fd5b505050506040513d601f19601f820116820180604052506115f89190810190612cbd565b9050919050565b600360008373ffffffffffffffffffffffffffffffffffffffff1673ffffffffffffffffffffffffffffffffffffffff16815260200190815260200160002060009054906101000a900473ffffffffffffffffffffffffffffffffffffffff1673ffffffffffffffffffffffffffffffffffffffff1663db006a75826040518263ffffffff1660e01b81526004016116979190613467565b600060405180830381600087803b1580156116b157600080fd5b505af11580156116c5573d6000803e3d6000fd5b505050505050565b8073ffffffffffffffffffffffffffffffffffffffff1663095ea7b3600160008473ffffffffffffffffffffffffffffffffffffffff1673ffffffffffffffffffffffffffffffffffffffff16815260200190815260200160002060009054906101000a900473ffffffffffffffffffffffffffffffffffffffff167fffffffffffffffffffffffffffffffffffffffffffffffffffffffffffffffff6040518363ffffffff1660e01b8152600401611787929190613291565b602060405180830381600087803b1580156117a157600080fd5b505af11580156117b5573d6000803e3d6000fd5b505050506040513d601f19601f820116820180604052506117d99190810190612bb3565b508073ffffffffffffffffffffffffffffffffffffffff1663095ea7b3600760009054906101000a900473ffffffffffffffffffffffffffffffffffffffff167fffffffffffffffffffffffffffffffffffffffffffffffffffffffffffffffff6040518363ffffffff1660e01b8152600401611857929190613291565b602060405180830381600087803b15801561187157600080fd5b505af1158015611885573d6000803e3d6000fd5b505050506040513d601f19601f820116820180604052506118a99190810190612bb3565b508073ffffffffffffffffffffffffffffffffffffffff1663095ea7b3600660009054906101000a900473ffffffffffffffffffffffffffffffffffffffff167fffffffffffffffffffffffffffffffffffffffffffffffffffffffffffffffff6040518363ffffffff1660e01b8152600401611927929190613291565b602060405180830381600087803b15801561194157600080fd5b505af1158015611955573d6000803e3d6000fd5b505050506040513d601f19601f820116820180604052506119799190810190612bb3565b508073ffffffffffffffffffffffffffffffffffffffff1663095ea7b3600260008473ffffffffffffffffffffffffffffffffffffffff1673ffffffffffffffffffffffffffffffffffffffff16815260200190815260200160002060009054906101000a900473ffffffffffffffffffffffffffffffffffffffff167fffffffffffffffffffffffffffffffffffffffffffffffffffffffffffffffff6040518363ffffffff1660e01b8152600401611a34929190613291565b602060405180830381600087803b158015611a4e57600080fd5b505af1158015611a62573d6000803e3d6000fd5b505050506040513d601f19601f82011682018060405250611a869190810190612bb3565b5050565b611a92611d39565b611ad1576040517f08c379a0000000000000000000000000000000000000000000000000000000008152600401611ac8906133fe565b60405180910390fd5b80600360008473ffffffffffffffffffffffffffffffffffffffff1673ffffffffffffffffffffffffffffffffffffffff16815260200190815260200160002060006101000a81548173ffffffffffffffffffffffffffffffffffffffff021916908373ffffffffffffffffffffffffffffffffffffffff1602179055505050565b611b5b611d39565b611b9a576040517f08c379a0000000000000000000000000000000000000000000000000000000008152600401611b91906133fe565b60405180910390fd5b80600660006101000a81548173ffffffffffffffffffffffffffffffffffffffff021916908373ffffffffffffffffffffffffffffffffffffffff16021790555050565b6000600260008473ffffffffffffffffffffffffffffffffffffffff1673ffffffffffffffffffffffffffffffffffffffff16815260200190815260200160002060009054906101000a900473ffffffffffffffffffffffffffffffffffffffff1673ffffffffffffffffffffffffffffffffffffffff166340c10f1930846040518363ffffffff1660e01b8152600401611c7a929190613291565b602060405180830381600087803b158015611c9457600080fd5b505af1158015611ca8573d6000803e3d6000fd5b505050506040513d601f19601f82011682018060405250611ccc9190810190612cbd565b11611d0c576040517f08c379a0000000000000000000000000000000000000000000000000000000008152600401611d039061341e565b60405180910390fd5b5050565b60008060009054906101000a900473ffffffffffffffffffffffffffffffffffffffff16905090565b60008060009054906101000a900473ffffffffffffffffffffffffffffffffffffffff1673ffffffffffffffffffffffffffffffffffffffff16611d7b61272f565b73ffffffffffffffffffffffffffffffffffffffff1614905090565b6000600260008473ffffffffffffffffffffffffffffffffffffffff1673ffffffffffffffffffffffffffffffffffffffff16815260200190815260200160002060009054906101000a900473ffffffffffffffffffffffffffffffffffffffff1673ffffffffffffffffffffffffffffffffffffffff16639dc29fac30846040518363ffffffff1660e01b8152600401611e33929190613291565b602060405180830381600087803b158015611e4d57600080fd5b505af1158015611e61573d6000803e3d6000fd5b505050506040513d601f19601f82011682018060405250611e859190810190612cbd565b11611ec5576040517f08c379a0000000000000000000000000000000000000000000000000000000008152600401611ebc906133de565b60405180910390fd5b5050565b611ed1611d39565b611f10576040517f08c379a0000000000000000000000000000000000000000000000000000000008152600401611f07906133fe565b60405180910390fd5b80600260008473ffffffffffffffffffffffffffffffffffffffff1673ffffffffffffffffffffffffffffffffffffffff16815260200190815260200160002060006101000a81548173ffffffffffffffffffffffffffffffffffffffff021916908373ffffffffffffffffffffffffffffffffffffffff1602179055505050565b6000600160008473ffffffffffffffffffffffffffffffffffffffff1673ffffffffffffffffffffffffffffffffffffffff16815260200190815260200160002060009054906101000a900473ffffffffffffffffffffffffffffffffffffffff1673ffffffffffffffffffffffffffffffffffffffff1663db006a75836040518263ffffffff1660e01b815260040161202c9190613467565b602060405180830381600087803b15801561204657600080fd5b505af115801561205a573d6000803e3d6000fd5b505050506040513d601f19601f8201168201806040525061207e9190810190612cbd565b146120be576040517f08c379a00000000000000000000000000000000000000000000000000000000081526004016120b59061335e565b60405180910390fd5b5050565b600080600460008473ffffffffffffffffffffffffffffffffffffffff1673ffffffffffffffffffffffffffffffffffffffff16815260200190815260200160002054905061210f6129ad565b600760009054906101000a900473ffffffffffffffffffffffffffffffffffffffff1673ffffffffffffffffffffffffffffffffffffffff1663c190c2ec60405180604001604052803073ffffffffffffffffffffffffffffffffffffffff1681526020016000815250846040518363ffffffff1660e01b815260040161219792919061343e565b604080518083038186803b1580156121ae57600080fd5b505afa1580156121c2573d6000803e3d6000fd5b505050506040513d601f19601f820116820180604052506121e69190810190612c94565b9050806020015192505050919050565b6000600160008373ffffffffffffffffffffffffffffffffffffffff1673ffffffffffffffffffffffffffffffffffffffff16815260200190815260200160002060009054906101000a900473ffffffffffffffffffffffffffffffffffffffff1673ffffffffffffffffffffffffffffffffffffffff166370a08231306040518263ffffffff1660e01b8152600401612290919061324d565b60206040518083038186803b1580156122a857600080fd5b505afa1580156122bc573d6000803e3d6000fd5b505050506040513d601f19601f820116820180604052506122e09190810190612cbd565b9050919050565b600560009054906101000a900473ffffffffffffffffffffffffffffffffffffffff1681565b600760009054906101000a900473ffffffffffffffffffffffffffffffffffffffff1681565b60046020528060005260406000206000915090505481565b6000806000806000600560009054906101000a900473ffffffffffffffffffffffffffffffffffffffff1673ffffffffffffffffffffffffffffffffffffffff1663d88be3c0876040518263ffffffff1660e01b81526004016123ae919061324d565b60006040518083038186803b1580156123c657600080fd5b505afa1580156123da573d6000803e3d6000fd5b505050506040513d6000823e3d601f19601f820116820180604052506124039190810190612c05565b94509450945094505060008090508085111561241d578490505b80841115612429578390505b80831115612435578290505b80821115612441578190505b60008090508282141561245357600190505b8382141561246057600390505b8482141561246d57600490505b8582141561247a57600290505b809650505050505050919050565b60036020528060005260406000206000915054906101000a900473ffffffffffffffffffffffffffffffffffffffff1681565b60008173ffffffffffffffffffffffffffffffffffffffff166370a08231306040518263ffffffff1660e01b81526004016124f6919061324d565b60206040518083038186803b15801561250e57600080fd5b505afa158015612522573d6000803e3d6000fd5b505050506040513d601f19601f820116820180604052506125469190810190612cbd565b9050919050565b612555611d39565b612594576040517f08c379a000000000000000000000000000000000000000000000000000000000815260040161258b906133fe565b60405180910390fd5b61259d81612737565b50565b6125a8611d39565b6125e7576040517f08c379a00000000000000000000000000000000000000000000000000000000081526004016125de906133fe565b60405180910390fd5b60003373ffffffffffffffffffffffffffffffffffffffff163073ffffffffffffffffffffffffffffffffffffffff163160405161262490613238565b60006040518083038185875af1925050503d8060008114612661576040519150601f19603f3d011682016040523d82523d6000602084013e612666565b606091505b50509050806126aa576040517f08c379a00000000000000000000000000000000000000000000000000000000081526004016126a1906133be565b60405180910390fd5b50565b60006126b8826121f6565b905060008111156126ce576126cd8282611f92565b5b6126d7826120c2565b905060008111156126ed576126ec8282611025565b5b6126f68261150e565b9050600081111561270c5761270b8282611d97565b5b612715826107c3565b9050600081111561272b5761272a82826115ff565b5b5050565b600033905090565b600073ffffffffffffffffffffffffffffffffffffffff168173ffffffffffffffffffffffffffffffffffffffff1614156127a7576040517f08c379a000000000000000000000000000000000000000000000000000000000815260040161279e9061337e565b60405180910390fd5b8073ffffffffffffffffffffffffffffffffffffffff166000809054906101000a900473ffffffffffffffffffffffffffffffffffffffff1673ffffffffffffffffffffffffffffffffffffffff167f8be0079c531659141344cd1fd0a4f28419497f9722a3daafe3b4186f6b6457e060405160405180910390a3806000806101000a81548173ffffffffffffffffffffffffffffffffffffffff021916908373ffffffffffffffffffffffffffffffffffffffff16021790555050565b6040518060400160405280600073ffffffffffffffffffffffffffffffffffffffff168152602001600081525090565b6040518060800160405280600015158152602001600060018111156128b657fe5b8152602001600060018111156128c857fe5b8152602001600081525090565b604051806101000160405280600060088111156128ee57fe5b8152602001600081526020016129026129c9565b81526020016000815260200160008152602001600073ffffffffffffffffffffffffffffffffffffffff16815260200160008152602001606081525090565b6040518061010001604052806000600881111561295a57fe5b81526020016000815260200161296e6129c9565b81526020016000815260200160008152602001600073ffffffffffffffffffffffffffffffffffffffff16815260200160008152602001606081525090565b6040518060400160405280600015158152602001600081525090565b6040518060800160405280600015158152602001600060018111156129ea57fe5b8152602001600060018111156129fc57fe5b8152602001600081525090565b600081359050612a1881613741565b92915050565b600081519050612a2d81613758565b92915050565b600081359050612a428161376f565b92915050565b600082601f830112612a5957600080fd5b8151612a6c612a67826134af565b613482565b91508082526020830160208301858383011115612a8857600080fd5b612a938382846136c9565b50505092915050565b600060408284031215612aae57600080fd5b612ab86040613482565b90506000612ac884828501612a1e565b6000830152506020612adc84828501612afd565b60208301525092915050565b600081359050612af781613786565b92915050565b600081519050612b0c81613786565b92915050565b600060208284031215612b2457600080fd5b6000612b3284828501612a09565b91505092915050565b60008060408385031215612b4e57600080fd5b6000612b5c85828601612a09565b9250506020612b6d85828601612a09565b9150509250929050565b60008060408385031215612b8a57600080fd5b6000612b9885828601612a09565b9250506020612ba985828601612ae8565b9150509250929050565b600060208284031215612bc557600080fd5b6000612bd384828501612a1e565b91505092915050565b600060208284031215612bee57600080fd5b6000612bfc84828501612a33565b91505092915050565b600080600080600060a08688031215612c1d57600080fd5b600086015167ffffffffffffffff811115612c3757600080fd5b612c4388828901612a48565b9550506020612c5488828901612afd565b9450506040612c6588828901612afd565b9350506060612c7688828901612afd565b9250506080612c8788828901612afd565b9150509295509295909350565b600060408284031215612ca657600080fd5b6000612cb484828501612a9c565b91505092915050565b600060208284031215612ccf57600080fd5b6000612cdd84828501612afd565b91505092915050565b6000612cf283836130b4565b905092915050565b6000612d0683836131bc565b60408301905092915050565b612d1b81613639565b82525050565b612d2a81613585565b82525050565b612d3981613585565b82525050565b6000612d4a826134fb565b612d548185613536565b935083602082028501612d66856134db565b8060005b85811015612da25784840389528151612d838582612ce6565b9450612d8e8361351c565b925060208a01995050600181019050612d6a565b50829750879550505050505092915050565b6000612dbf82613506565b612dc98185613547565b9350612dd4836134eb565b8060005b83811015612e05578151612dec8882612cfa565b9750612df783613529565b925050600181019050612dd8565b5085935050505092915050565b612e1b81613597565b82525050565b612e2a81613597565b82525050565b6000612e3b82613511565b612e458185613558565b9350612e558185602086016136c9565b612e5e816136fc565b840191505092915050565b612e728161364b565b82525050565b612e818161365d565b82525050565b612e908161366f565b82525050565b612e9f81613681565b82525050565b612eae81613693565b82525050565b6000612ec1601983613574565b91507f434f4d504f554e443a207769746864726177206661696c6564000000000000006000830152602082019050919050565b6000612f01602683613574565b91507f4f776e61626c653a206e6577206f776e657220697320746865207a65726f206160008301527f64647265737300000000000000000000000000000000000000000000000000006020830152604082019050919050565b6000612f67601783613574565b91507f434f4d504f554e443a20737570706c79206661696c65640000000000000000006000830152602082019050919050565b6000612fa7601683613574565b91507f7472616e73666572206f6620455448206661696c6564000000000000000000006000830152602082019050919050565b6000612fe7601883613574565b91507f46554c4352554d3a207769746864726177206661696c656400000000000000006000830152602082019050919050565b6000613027602083613574565b91507f4f776e61626c653a2063616c6c6572206973206e6f7420746865206f776e65726000830152602082019050919050565b6000613067600083613569565b9150600082019050919050565b6000613081601683613574565b91507f46554c4352554d3a20737570706c79206661696c6564000000000000000000006000830152602082019050919050565b6000610160830160008301516130cd6000860182612e69565b5060208301516130e0602086018261321a565b5060408301516130f36040860182613167565b50606083015161310660c086018261321a565b50608083015161311960e086018261321a565b5060a083015161312d610100860182612d21565b5060c083015161314161012086018261321a565b5060e083015184820361014086015261315a8282612e30565b9150508091505092915050565b60808201600082015161317d6000850182612e12565b5060208201516131906020850182612e78565b5060408201516131a36040850182612e87565b5060608201516131b6606085018261321a565b50505050565b6040820160008201516131d26000850182612d21565b5060208201516131e5602085018261321a565b50505050565b6040820160008201516132016000850182612d21565b506020820151613214602085018261321a565b50505050565b6132238161362f565b82525050565b6132328161362f565b82525050565b60006132438261305a565b9150819050919050565b60006020820190506132626000830184612d30565b92915050565b600060408201905061327d6000830185612d12565b61328a6020830184613229565b9392505050565b60006040820190506132a66000830185612d30565b6132b36020830184613229565b9392505050565b60006060820190506132cf6000830186612d30565b6132dc6020830185613229565b6132e96040830184612ea5565b949350505050565b6000604082019050818103600083015261330b8185612db4565b9050818103602083015261331f8184612d3f565b90509392505050565b600060208201905061333d6000830184612e21565b92915050565b60006020820190506133586000830184612e96565b92915050565b6000602082019050818103600083015261337781612eb4565b9050919050565b6000602082019050818103600083015261339781612ef4565b9050919050565b600060208201905081810360008301526133b781612f5a565b9050919050565b600060208201905081810360008301526133d781612f9a565b9050919050565b600060208201905081810360008301526133f781612fda565b9050919050565b600060208201905081810360008301526134178161301a565b9050919050565b6000602082019050818103600083015261343781613074565b9050919050565b600060608201905061345360008301856131eb565b6134606040830184613229565b9392505050565b600060208201905061347c6000830184613229565b92915050565b6000604051905081810181811067ffffffffffffffff821117156134a557600080fd5b8060405250919050565b600067ffffffffffffffff8211156134c657600080fd5b601f19601f8301169050602081019050919050565b6000819050602082019050919050565b6000819050602082019050919050565b600081519050919050565b600081519050919050565b600081519050919050565b6000602082019050919050565b6000602082019050919050565b600082825260208201905092915050565b600082825260208201905092915050565b600082825260208201905092915050565b600081905092915050565b600082825260208201905092915050565b60006135908261360f565b9050919050565b60008115159050919050565b60006135ae82613585565b9050919050565b60008190506135c38261370d565b919050565b60008190506135d68261371a565b919050565b60008190506135e982613727565b919050565b60008190506135fc82613734565b919050565b600061ffff82169050919050565b600073ffffffffffffffffffffffffffffffffffffffff82169050919050565b6000819050919050565b6000613644826136a5565b9050919050565b6000613656826135b5565b9050919050565b6000613668826135c8565b9050919050565b600061367a826135db565b9050919050565b600061368c826135ee565b9050919050565b600061369e82613601565b9050919050565b60006136b0826136b7565b9050919050565b60006136c28261360f565b9050919050565b60005b838110156136e75780820151818401526020810190506136cc565b838111156136f6576000848401525b50505050565b6000601f19601f8301169050919050565b6009811061371757fe5b50565b6002811061372457fe5b50565b6002811061373157fe5b50565b6005811061373e57fe5b50565b61374a81613585565b811461375557600080fd5b50565b61376181613597565b811461376c57600080fd5b50565b613778816135a3565b811461378357600080fd5b50565b61378f8161362f565b811461379a57600080fd5b5056fea365627a7a7231582044cbcc7c92abdce55827f0bef9da3177bd9b3a88368d3f0f5a1f57f403bddcb66c6578706572696d656e74616cf564736f6c634300050c0040",
  "source": "// File: @openzeppelin\\contracts\\token\\ERC20\\IERC20.sol\r\n\r\npragma solidity ^0.5.0;\r\npragma experimental ABIEncoderV2;\r\n\r\ninterface IERC20 {\r\n\r\n    function totalSupply() external view returns (uint256);\r\n    function balanceOf(address account) external view returns (uint256);\r\n    function name() external view returns (string memory);\r\n    function symbol() external view returns (string memory);\r\n    function transfer(address recipient, uint256 amount) external returns (bool);\r\n    function approve(address spender, uint256 amount) external returns (bool);\r\n}\r\n\r\n// File: @openzeppelin\\contracts\\GSN\\Context.sol\r\n\r\npragma solidity ^0.5.0;\r\n\r\n/*\r\n * @dev Provides information about the current execution context, including the\r\n * sender of the transaction and its data. While these are generally available\r\n * via msg.sender and msg.data, they should not be accessed in such a direct\r\n * manner, since when dealing with GSN meta-transactions the account sending and\r\n * paying for execution may not be the actual sender (as far as an application\r\n * is concerned).\r\n *\r\n * This contract is only required for intermediate, library-like contracts.\r\n */\r\ncontract Context {\r\n    // Empty internal constructor, to prevent people from mistakenly deploying\r\n    // an instance of this contract, which should be used via inheritance.\r\n    constructor () internal { }\r\n    // solhint-disable-previous-line no-empty-blocks\r\n\r\n    function _msgSender() internal view returns (address payable) {\r\n        return msg.sender;\r\n    }\r\n\r\n    function _msgData() internal view returns (bytes memory) {\r\n        this; // silence state mutability warning without generating bytecode - see https://github.com/ethereum/solidity/issues/2691\r\n        return msg.data;\r\n    }\r\n}\r\n\r\n// File: @openzeppelin\\contracts\\ownership\\Ownable.sol\r\n\r\npragma solidity ^0.5.0;\r\n\r\n/**\r\n * @dev Contract module which provides a basic access control mechanism, where\r\n * there is an account (an owner) that can be granted exclusive access to\r\n * specific functions.\r\n *\r\n * This module is used through inheritance. It will make available the modifier\r\n * `onlyOwner`, which can be applied to your functions to restrict their use to\r\n * the owner.\r\n */\r\ncontract Ownable is Context {\r\n    address private _owner;\r\n\r\n    event OwnershipTransferred(address indexed previousOwner, address indexed newOwner);\r\n\r\n    /**\r\n     * @dev Initializes the contract setting the deployer as the initial owner.\r\n     */\r\n    constructor () internal {\r\n        _owner = _msgSender();\r\n        emit OwnershipTransferred(address(0), _owner);\r\n    }\r\n\r\n    /**\r\n     * @dev Returns the address of the current owner.\r\n     */\r\n    function owner() public view returns (address) {\r\n        return _owner;\r\n    }\r\n\r\n    /**\r\n     * @dev Throws if called by any account other than the owner.\r\n     */\r\n    modifier onlyOwner() {\r\n        require(isOwner(), \"Ownable: caller is not the owner\");\r\n        _;\r\n    }\r\n\r\n    /**\r\n     * @dev Returns true if the caller is the current owner.\r\n     */\r\n    function isOwner() public view returns (bool) {\r\n        return _msgSender() == _owner;\r\n    }\r\n\r\n    /**\r\n     * @dev Leaves the contract without owner. It will not be possible to call\r\n     * `onlyOwner` functions anymore. Can only be called by the current owner.\r\n     *\r\n     * NOTE: Renouncing ownership will leave the contract without an owner,\r\n     * thereby removing any functionality that is only available to the owner.\r\n     */\r\n    function renounceOwnership() public onlyOwner {\r\n        emit OwnershipTransferred(_owner, address(0));\r\n        _owner = address(0);\r\n    }\r\n\r\n    /**\r\n     * @dev Transfers ownership of the contract to a new account (`newOwner`).\r\n     * Can only be called by the current owner.\r\n     */\r\n    function transferOwnership(address newOwner) public onlyOwner {\r\n        _transferOwnership(newOwner);\r\n    }\r\n\r\n    /**\r\n     * @dev Transfers ownership of the contract to a new account (`newOwner`).\r\n     */\r\n    function _transferOwnership(address newOwner) internal {\r\n        require(newOwner != address(0), \"Ownable: new owner is the zero address\");\r\n        emit OwnershipTransferred(_owner, newOwner);\r\n        _owner = newOwner;\r\n    }\r\n}\r\n\r\n// File: @openzeppelin\\contracts\\math\\SafeMath.sol\r\n\r\npragma solidity ^0.5.0;\r\n\r\n/**\r\n * @dev Wrappers over Solidity's arithmetic operations with added overflow\r\n * checks.\r\n *\r\n * Arithmetic operations in Solidity wrap on overflow. This can easily result\r\n * in bugs, because programmers usually assume that an overflow raises an\r\n * error, which is the standard behavior in high level programming languages.\r\n * `SafeMath` restores this intuition by reverting the transaction when an\r\n * operation overflows.\r\n *\r\n * Using this library instead of the unchecked operations eliminates an entire\r\n * class of bugs, so it's recommended to use it always.\r\n */\r\nlibrary SafeMath {\r\n    /**\r\n     * @dev Returns the addition of two unsigned integers, reverting on\r\n     * overflow.\r\n     *\r\n     * Counterpart to Solidity's `+` operator.\r\n     *\r\n     * Requirements:\r\n     * - Addition cannot overflow.\r\n     */\r\n    function add(uint256 a, uint256 b) internal pure returns (uint256) {\r\n        uint256 c = a + b;\r\n        require(c >= a, \"SafeMath: addition overflow\");\r\n\r\n        return c;\r\n    }\r\n\r\n    /**\r\n     * @dev Returns the subtraction of two unsigned integers, reverting on\r\n     * overflow (when the result is negative).\r\n     *\r\n     * Counterpart to Solidity's `-` operator.\r\n     *\r\n     * Requirements:\r\n     * - Subtraction cannot overflow.\r\n     */\r\n    function sub(uint256 a, uint256 b) internal pure returns (uint256) {\r\n        return sub(a, b, \"SafeMath: subtraction overflow\");\r\n    }\r\n\r\n    /**\r\n     * @dev Returns the subtraction of two unsigned integers, reverting with custom message on\r\n     * overflow (when the result is negative).\r\n     *\r\n     * Counterpart to Solidity's `-` operator.\r\n     *\r\n     * Requirements:\r\n     * - Subtraction cannot overflow.\r\n     *\r\n     * _Available since v2.4.0._\r\n     */\r\n    function sub(uint256 a, uint256 b, string memory errorMessage) internal pure returns (uint256) {\r\n        require(b <= a, errorMessage);\r\n        uint256 c = a - b;\r\n\r\n        return c;\r\n    }\r\n\r\n    /**\r\n     * @dev Returns the multiplication of two unsigned integers, reverting on\r\n     * overflow.\r\n     *\r\n     * Counterpart to Solidity's `*` operator.\r\n     *\r\n     * Requirements:\r\n     * - Multiplication cannot overflow.\r\n     */\r\n    function mul(uint256 a, uint256 b) internal pure returns (uint256) {\r\n        // Gas optimization: this is cheaper than requiring 'a' not being zero, but the\r\n        // benefit is lost if 'b' is also tested.\r\n        // See: https://github.com/OpenZeppelin/openzeppelin-contracts/pull/522\r\n        if (a == 0) {\r\n            return 0;\r\n        }\r\n\r\n        uint256 c = a * b;\r\n        require(c / a == b, \"SafeMath: multiplication overflow\");\r\n\r\n        return c;\r\n    }\r\n\r\n    /**\r\n     * @dev Returns the integer division of two unsigned integers. Reverts on\r\n     * division by zero. The result is rounded towards zero.\r\n     *\r\n     * Counterpart to Solidity's `/` operator. Note: this function uses a\r\n     * `revert` opcode (which leaves remaining gas untouched) while Solidity\r\n     * uses an invalid opcode to revert (consuming all remaining gas).\r\n     *\r\n     * Requirements:\r\n     * - The divisor cannot be zero.\r\n     */\r\n    function div(uint256 a, uint256 b) internal pure returns (uint256) {\r\n        return div(a, b, \"SafeMath: division by zero\");\r\n    }\r\n\r\n    /**\r\n     * @dev Returns the integer division of two unsigned integers. Reverts with custom message on\r\n     * division by zero. The result is rounded towards zero.\r\n     *\r\n     * Counterpart to Solidity's `/` operator. Note: this function uses a\r\n     * `revert` opcode (which leaves remaining gas untouched) while Solidity\r\n     * uses an invalid opcode to revert (consuming all remaining gas).\r\n     *\r\n     * Requirements:\r\n     * - The divisor cannot be zero.\r\n     *\r\n     * _Available since v2.4.0._\r\n     */\r\n    function div(uint256 a, uint256 b, string memory errorMessage) internal pure returns (uint256) {\r\n        // Solidity only automatically asserts when dividing by 0\r\n        require(b > 0, errorMessage);\r\n        uint256 c = a / b;\r\n        // assert(a == b * c + a % b); // There is no case in which this doesn't hold\r\n\r\n        return c;\r\n    }\r\n\r\n    /**\r\n     * @dev Returns the remainder of dividing two unsigned integers. (unsigned integer modulo),\r\n     * Reverts when dividing by zero.\r\n     *\r\n     * Counterpart to Solidity's `%` operator. This function uses a `revert`\r\n     * opcode (which leaves remaining gas untouched) while Solidity uses an\r\n     * invalid opcode to revert (consuming all remaining gas).\r\n     *\r\n     * Requirements:\r\n     * - The divisor cannot be zero.\r\n     */\r\n    function mod(uint256 a, uint256 b) internal pure returns (uint256) {\r\n        return mod(a, b, \"SafeMath: modulo by zero\");\r\n    }\r\n\r\n    /**\r\n     * @dev Returns the remainder of dividing two unsigned integers. (unsigned integer modulo),\r\n     * Reverts with custom message when dividing by zero.\r\n     *\r\n     * Counterpart to Solidity's `%` operator. This function uses a `revert`\r\n     * opcode (which leaves remaining gas untouched) while Solidity uses an\r\n     * invalid opcode to revert (consuming all remaining gas).\r\n     *\r\n     * Requirements:\r\n     * - The divisor cannot be zero.\r\n     *\r\n     * _Available since v2.4.0._\r\n     */\r\n    function mod(uint256 a, uint256 b, string memory errorMessage) internal pure returns (uint256) {\r\n        require(b != 0, errorMessage);\r\n        return a % b;\r\n    }\r\n}\r\n\r\n// File: @openzeppelin\\contracts\\utils\\Address.sol\r\n\r\npragma solidity ^0.5.5;\r\n\r\n/**\r\n * @dev Collection of functions related to the address type\r\n */\r\nlibrary Address {\r\n    /**\r\n     * @dev Returns true if `account` is a contract.\r\n     *\r\n     * This test is non-exhaustive, and there may be false-negatives: during the\r\n     * execution of a contract's constructor, its address will be reported as\r\n     * not containing a contract.\r\n     *\r\n     * IMPORTANT: It is unsafe to assume that an address for which this\r\n     * function returns false is an externally-owned account (EOA) and not a\r\n     * contract.\r\n     */\r\n    function isContract(address account) internal view returns (bool) {\r\n        // This method relies in extcodesize, which returns 0 for contracts in\r\n        // construction, since the code is only stored at the end of the\r\n        // constructor execution.\r\n\r\n        // According to EIP-1052, 0x0 is the value returned for not-yet created accounts\r\n        // and 0xc5d2460186f7233c927e7db2dcc703c0e500b653ca82273b7bfad8045d85a470 is returned\r\n        // for accounts without code, i.e. `keccak256('')`\r\n        bytes32 codehash;\r\n        bytes32 accountHash = 0xc5d2460186f7233c927e7db2dcc703c0e500b653ca82273b7bfad8045d85a470;\r\n        // solhint-disable-next-line no-inline-assembly\r\n        assembly { codehash := extcodehash(account) }\r\n        return (codehash != 0x0 && codehash != accountHash);\r\n    }\r\n\r\n    /**\r\n     * @dev Converts an `address` into `address payable`. Note that this is\r\n     * simply a type cast: the actual underlying value is not changed.\r\n     *\r\n     * _Available since v2.4.0._\r\n     */\r\n    function toPayable(address account) internal pure returns (address payable) {\r\n        return address(uint160(account));\r\n    }\r\n\r\n    /**\r\n     * @dev Replacement for Solidity's `transfer`: sends `amount` wei to\r\n     * `recipient`, forwarding all available gas and reverting on errors.\r\n     *\r\n     * https://eips.ethereum.org/EIPS/eip-1884[EIP1884] increases the gas cost\r\n     * of certain opcodes, possibly making contracts go over the 2300 gas limit\r\n     * imposed by `transfer`, making them unable to receive funds via\r\n     * `transfer`. {sendValue} removes this limitation.\r\n     *\r\n     * https://diligence.consensys.net/posts/2019/09/stop-using-soliditys-transfer-now/[Learn more].\r\n     *\r\n     * IMPORTANT: because control is transferred to `recipient`, care must be\r\n     * taken to not create reentrancy vulnerabilities. Consider using\r\n     * {ReentrancyGuard} or the\r\n     * https://solidity.readthedocs.io/en/v0.5.11/security-considerations.html#use-the-checks-effects-interactions-pattern[checks-effects-interactions pattern].\r\n     *\r\n     * _Available since v2.4.0._\r\n     */\r\n    function sendValue(address payable recipient, uint256 amount) internal {\r\n        require(address(this).balance >= amount, \"Address: insufficient balance\");\r\n\r\n        // solhint-disable-next-line avoid-call-value\r\n        (bool success, ) = recipient.call.value(amount)(\"\");\r\n        require(success, \"Address: unable to send value, recipient may have reverted\");\r\n    }\r\n}\r\n\r\n\r\ninterface Compound {\r\n    function approve ( address spender, uint256 amount ) external returns ( bool );\r\n    function mint ( uint256 mintAmount ) external returns ( uint256 );\r\n    function balanceOf(address _owner) external view returns (uint256 balance);\r\n    function transfer(address _to, uint _value) external returns (bool success);\r\n    function redeem(uint256 redeemTokens) external returns (uint256);\r\n}\r\n\r\ninterface Fulcrum {\r\n    function mintWithEther(address receiver, uint256 maxPriceAllowed) external payable returns (uint256 mintAmount);\r\n    function mint(address receiver, uint256 amount) external payable returns (uint256 mintAmount);\r\n    function burnToEther(address receiver, uint256 burnAmount, uint256 minPriceAllowed) external returns (uint256 loanAmountPaid);\r\n    function burn(address receiver, uint256 burnAmount) external returns (uint256 loanAmountPaid);\r\n    function balanceOf(address _owner) external view returns (uint256 balance);\r\n}\r\n\r\ninterface ILendingPoolAddressesProvider {\r\n    function getLendingPool() external view returns (address);\r\n}\r\n\r\ninterface Aave {\r\n    function deposit(address _reserve, uint256 _amount, uint16 _referralCode) external;\r\n    function redeemUnderlying(address _reserve, address payable _user, uint256 _amount, uint256 _aTokenBalanceAfterRedeem) external;\r\n    function balanceOf(address _owner) external view returns (uint256 balance);\r\n}\r\n\r\ninterface AToken {\r\n    function redeem(uint256 amount) external;\r\n    function balanceOf(address _owner) external view returns (uint256 balance);\r\n}\r\n\r\ninterface IIEarnManager {\r\n    function recommend(address _token) external view returns (\r\n      string memory choice,\r\n      uint256 capr,\r\n      uint256 iapr,\r\n      uint256 aapr,\r\n      uint256 dapr\r\n    );\r\n}\r\n\r\ncontract Structs {\r\n    struct Val {\r\n        uint256 value;\r\n    }\r\n\r\n    struct TotalPar {\r\n        uint128 borrow;\r\n        uint128 supply;\r\n    }\r\n\r\n    enum ActionType {\r\n        Deposit,   // supply tokens\r\n        Withdraw,  // borrow tokens\r\n        Transfer,  // transfer balance between accounts\r\n        Buy,       // buy an amount of some token (externally)\r\n        Sell,      // sell an amount of some token (externally)\r\n        Trade,     // trade tokens against another account\r\n        Liquidate, // liquidate an undercollateralized or expiring account\r\n        Vaporize,  // use excess tokens to zero-out a completely negative account\r\n        Call       // send arbitrary data to an address\r\n    }\r\n\r\n    enum AssetDenomination {\r\n        Wei, // the amount is denominated in wei\r\n        Par  // the amount is denominated in par\r\n    }\r\n\r\n    enum AssetReference {\r\n        Delta, // the amount is given as a delta from the current value\r\n        Target // the amount is given as an exact number to end up at\r\n    }\r\n\r\n    struct AssetAmount {\r\n        bool sign; // true if positive\r\n        AssetDenomination denomination;\r\n        AssetReference ref;\r\n        uint256 value;\r\n    }\r\n\r\n    struct ActionArgs {\r\n        ActionType actionType;\r\n        uint256 accountId;\r\n        AssetAmount amount;\r\n        uint256 primaryMarketId;\r\n        uint256 secondaryMarketId;\r\n        address otherAddress;\r\n        uint256 otherAccountId;\r\n        bytes data;\r\n    }\r\n\r\n    struct Info {\r\n        address owner;  // The address that owns the account\r\n        uint256 number; // A nonce that allows a single address to control many accounts\r\n    }\r\n\r\n    struct Wei {\r\n        bool sign; // true if positive\r\n        uint256 value;\r\n    }\r\n}\r\n\r\ncontract DyDx is Structs {\r\n    function getEarningsRate() public view returns (Val memory);\r\n    function getMarketInterestRate(uint256 marketId) public view returns (Val memory);\r\n    function getMarketTotalPar(uint256 marketId) public view returns (TotalPar memory);\r\n    function getAccountWei(Info memory account, uint256 marketId) public view returns (Wei memory);\r\n    function operate(Info[] memory, ActionArgs[] memory) public;\r\n}\r\n\r\ncontract InvestZAP is Ownable, Structs {\r\n    using SafeMath for uint;\r\n    using Address for address;\r\n\r\n    mapping(address => address) public compound;\r\n    mapping(address => address) public fulcrum;\r\n    mapping(address => address) public aave;\r\n    mapping(address => uint256) public dydx;\r\n\r\n    address public APR;\r\n    address public AAVE;\r\n    address public DYDX;\r\n\r\n    enum CurrentLender {\r\n        NONE,\r\n        DYDX,\r\n        COMPOUND,\r\n        AAVE,\r\n        FULCRUM\r\n    }\r\n\r\n    constructor() public {\r\n        APR = address(0x9CaD8AB10daA9AF1a9D2B878541f41b697268eEC);\r\n        DYDX = address(0x1E0447b19BB6EcFdAe1e4AE1694b0C3659614e4e);\r\n        AAVE = address(0x24a42fD28C976A61Df5D00D0599C34c4f90748c8);\r\n\r\n        addCToken(0x6B175474E89094C44Da98b954EedeAC495271d0F, 0x5d3a536E4D6DbD6114cc1Ead35777bAB948E3643); // cDAI\r\n        addCToken(0x0D8775F648430679A709E98d2b0Cb6250d2887EF, 0x6C8c6b02E7b2BE14d4fA6022Dfd6d75921D90E4E); // cBAT\r\n        addCToken(0xEeeeeEeeeEeEeeEeEeEeeEEEeeeeEeeeeeeeEEeE, 0x4Ddc2D193948926D02f9B1fE9e1daa0718270ED5); // cETH\r\n        addCToken(0x1985365e9f78359a9B6AD760e32412f4a445E862, 0x158079Ee67Fce2f58472A96584A73C7Ab9AC95c1); // cREP\r\n        addCToken(0xA0b86991c6218b36c1d19D4a2e9Eb0cE3606eB48, 0x39AA39c021dfbaE8faC545936693aC917d5E7563); // cUSDC\r\n        addCToken(0x2260FAC5E5542a773Aa44fBCfeDf7C193bc2C599, 0xC11b1268C1A384e55C48c2391d8d480264A3A7F4); // cWBTC\r\n        addCToken(0xE41d2489571d322189246DaFA5ebDe1F4699F498, 0xB3319f5D18Bc0D84dD1b4825Dcde5d5f7266d407); // cZRX\r\n\r\n        addAToken(0x6B175474E89094C44Da98b954EedeAC495271d0F, 0xfC1E690f61EFd961294b3e1Ce3313fBD8aa4f85d); // aDAI\r\n        addAToken(0x0000000000085d4780B73119b644AE5ecd22b376, 0x4DA9b813057D04BAef4e5800E36083717b4a0341); // aTUSD\r\n        addAToken(0xA0b86991c6218b36c1d19D4a2e9Eb0cE3606eB48, 0x9bA00D6856a4eDF4665BcA2C2309936572473B7E); // aUSDC\r\n        addAToken(0xdAC17F958D2ee523a2206206994597C13D831ec7, 0x71fc860F7D3A592A4a98740e39dB31d25db65ae8); // aUSDT\r\n        addAToken(0x57Ab1ec28D129707052df4dF418D58a2D46d5f51, 0x625aE63000f46200499120B906716420bd059240); // aSUSD\r\n        addAToken(0x80fB784B7eD66730e8b1DBd9820aFD29931aab03, 0x7D2D3688Df45Ce7C552E19c27e007673da9204B8); // aLEND\r\n        addAToken(0x0D8775F648430679A709E98d2b0Cb6250d2887EF, 0xE1BA0FB44CCb0D11b80F92f4f8Ed94CA3fF51D00); // aBAT\r\n        addAToken(0xEeeeeEeeeEeEeeEeEeEeeEEEeeeeEeeeeeeeEEeE, 0x3a3A65aAb0dd2A17E3F1947bA16138cd37d08c04); // aETH\r\n        addAToken(0x514910771AF9Ca656af840dff83E8264EcF986CA, 0xA64BD6C70Cb9051F6A9ba1F163Fdc07E0DfB5F84); // aLINK\r\n        addAToken(0xdd974D5C2e2928deA5F71b9825b8b646686BD200, 0x9D91BE44C06d373a8a226E1f3b146956083803eB); // aKNC\r\n        addAToken(0x1985365e9f78359a9B6AD760e32412f4a445E862, 0x71010A9D003445aC60C4e6A7017c1E89A477B438); // aREP\r\n        addAToken(0x9f8F72aA9304c8B593d555F12eF6589cC3A579A2, 0x7deB5e830be29F91E298ba5FF1356BB7f8146998); // aMKR\r\n        addAToken(0x0F5D2fB29fb7d3CFeE444a200298f468908cC942, 0x6FCE4A401B6B80ACe52baAefE4421Bd188e76F6f); // aMANA\r\n        addAToken(0xE41d2489571d322189246DaFA5ebDe1F4699F498, 0x6Fb0855c404E09c47C3fBCA25f08d4E41f9F062f); // aZRX\r\n        addAToken(0xC011a73ee8576Fb46F5E1c5751cA3B9Fe0af2a6F, 0x328C4c80BC7aCa0834Db37e6600A6c49E12Da4DE); // aSNX\r\n        addAToken(0x2260FAC5E5542a773Aa44fBCfeDf7C193bc2C599, 0xFC4B8ED459e00e5400be803A9BB3954234FD50e3); // aWBTC\r\n\r\n        addIToken(0xE41d2489571d322189246DaFA5ebDe1F4699F498, 0xA7Eb2bc82df18013ecC2A6C533fc29446442EDEe); // iZRX\r\n        addIToken(0x1985365e9f78359a9B6AD760e32412f4a445E862, 0xBd56E9477Fc6997609Cf45F84795eFbDAC642Ff1); // iREP\r\n        addIToken(0xdd974D5C2e2928deA5F71b9825b8b646686BD200, 0x1cC9567EA2eB740824a45F8026cCF8e46973234D); // iKNC\r\n        addIToken(0x2260FAC5E5542a773Aa44fBCfeDf7C193bc2C599, 0xBA9262578EFef8b3aFf7F60Cd629d6CC8859C8b5); // iWBTC\r\n        addIToken(0xA0b86991c6218b36c1d19D4a2e9Eb0cE3606eB48, 0xF013406A0B1d544238083DF0B93ad0d2cBE0f65f); // iUSDC\r\n        addIToken(0xEeeeeEeeeEeEeeEeEeEeeEEEeeeeEeeeeeeeEEeE, 0x77f973FCaF871459aa58cd81881Ce453759281bC); // iETH\r\n        addIToken(0x6B175474E89094C44Da98b954EedeAC495271d0F, 0x493C57C4763932315A328269E1ADaD09653B9081); // iDAI\r\n        addIToken(0x514910771AF9Ca656af840dff83E8264EcF986CA, 0x1D496da96caf6b518b133736beca85D5C4F9cBc5); // iLINK\r\n        addIToken(0x57Ab1ec28D129707052df4dF418D58a2D46d5f51, 0x49f4592E641820e928F9919Ef4aBd92a719B4b49); // iSUSD\r\n\r\n        addDToken(0xEeeeeEeeeEeEeeEeEeEeeEEEeeeeEeeeeeeeEEeE, 0); // dETH\r\n        addDToken(0xA0b86991c6218b36c1d19D4a2e9Eb0cE3606eB48, 2); // dUSDC\r\n        addDToken(0x6B175474E89094C44Da98b954EedeAC495271d0F, 3); // dDAI\r\n    }\r\n\r\n    function set_new_APR(address _new_APR) public onlyOwner {\r\n        APR = _new_APR;\r\n    }\r\n\r\n    function recommend(address _token) public view returns (CurrentLender) {\r\n      (,uint256 capr,uint256 iapr,uint256 aapr,uint256 dapr) = IIEarnManager(APR).recommend(_token);\r\n      uint256 max = 0;\r\n      if (capr > max) {\r\n        max = capr;\r\n      }\r\n      if (iapr > max) {\r\n        max = iapr;\r\n      }\r\n      if (aapr > max) {\r\n        max = aapr;\r\n      }\r\n      if (dapr > max) {\r\n        max = dapr;\r\n      }\r\n\r\n      CurrentLender newLender = CurrentLender.NONE;\r\n      if (max == dapr) {\r\n        newLender = CurrentLender.DYDX;\r\n      }\r\n      if (max == aapr) {\r\n        newLender = CurrentLender.AAVE;\r\n      }\r\n      if (max == iapr) {\r\n        newLender = CurrentLender.FULCRUM;\r\n      }\r\n      if (max == capr) {\r\n        newLender = CurrentLender.COMPOUND;\r\n      }\r\n      return newLender;\r\n    }\r\n\r\n    function balanceDydx(address _token) public view returns (uint256) {\r\n        uint256 marketID = dydx[_token];\r\n        Wei memory bal = DyDx(DYDX).getAccountWei(Info(address(this), 0), marketID);\r\n        return bal.value;\r\n    }\r\n\r\n    function balanceCompound(address _token) public view returns (uint256) {\r\n        return Compound(compound[_token]).balanceOf(address(this));\r\n    }\r\n\r\n    function balanceFulcrum(address _token) public view returns (uint256) {\r\n      return Fulcrum(fulcrum[_token]).balanceOf(address(this));\r\n    }\r\n\r\n    function balanceAave(address _token) public view returns (uint256) {\r\n      return AToken(aave[_token]).balanceOf(address(this));\r\n    }\r\n\r\n    function supplyDydx(address _token, uint256 amount) public returns(uint) {\r\n        uint256 marketID = dydx[_token];\r\n\r\n        Info[] memory infos = new Info[](1);\r\n        infos[0] = Info(address(this), 0);\r\n\r\n        AssetAmount memory amt = AssetAmount(true, AssetDenomination.Wei, AssetReference.Delta, amount);\r\n        ActionArgs memory act;\r\n        act.actionType = ActionType.Deposit;\r\n        act.accountId = 0;\r\n        act.amount = amt;\r\n        act.primaryMarketId = marketID;\r\n        act.otherAddress = address(this);\r\n\r\n        ActionArgs[] memory args = new ActionArgs[](1);\r\n        args[0] = act;\r\n\r\n        DyDx(DYDX).operate(infos, args);\r\n    }\r\n\r\n    function withdrawDydx(address _token, uint256 amount) public {\r\n        uint256 marketID = dydx[_token];\r\n\r\n        Info[] memory infos = new Info[](1);\r\n        infos[0] = Info(address(this), 0);\r\n\r\n        AssetAmount memory amt = AssetAmount(true, AssetDenomination.Wei, AssetReference.Delta, amount);\r\n        ActionArgs memory act;\r\n        act.actionType = ActionType.Withdraw;\r\n        act.accountId = 0;\r\n        act.amount = amt;\r\n        act.primaryMarketId = marketID;\r\n        act.otherAddress = address(this);\r\n\r\n        ActionArgs[] memory args = new ActionArgs[](1);\r\n        args[0] = act;\r\n\r\n        DyDx(DYDX).operate(infos, args);\r\n    }\r\n\r\n    function balance(address _token) public view returns (uint256) {\r\n      return IERC20(_token).balanceOf(address(this));\r\n    }\r\n\r\n    function approveToken(address _token) public {\r\n        IERC20(_token).approve(compound[_token], uint(-1)); //also add to constructor\r\n        IERC20(_token).approve(DYDX, uint(-1));\r\n        IERC20(_token).approve(AAVE, uint(-1));\r\n        IERC20(_token).approve(fulcrum[_token], uint(-1));\r\n    }\r\n\r\n    function withdrawAll(address _token) public {\r\n      uint256 amount = balanceCompound(_token);\r\n      if (amount > 0) {\r\n        withdrawCompound(_token, amount);\r\n      }\r\n      amount = balanceDydx(_token);\r\n      if (amount > 0) {\r\n        withdrawDydx(_token, amount);\r\n      }\r\n      amount = balanceFulcrum(_token);\r\n      if (amount > 0) {\r\n        withdrawFulcrum(_token, amount);\r\n      }\r\n      amount = balanceAave(_token);\r\n      if (amount > 0) {\r\n        withdrawAave(_token, amount);\r\n      }\r\n    }\r\n\r\n    function rebalance(address _token) public {\r\n      CurrentLender newLender = recommend(_token);\r\n\r\n      withdrawAll(_token);\r\n\r\n      if (balance(_token) > 0) {\r\n        if (newLender == CurrentLender.DYDX) {\r\n          supplyDydx(_token, balance(_token));\r\n        }\r\n        if (newLender == CurrentLender.FULCRUM) {\r\n          supplyFulcrum(_token, balance(_token));\r\n        }\r\n        if (newLender == CurrentLender.COMPOUND) {\r\n          supplyCompound(_token, balance(_token));\r\n        }\r\n        if (newLender == CurrentLender.AAVE) {\r\n          supplyAave(_token, balance(_token));\r\n        }\r\n      }\r\n    }\r\n\r\n    function supplyAave(address _token, uint amount) public {\r\n      Aave(AAVE).deposit(_token, amount, 0);\r\n    }\r\n    function supplyFulcrum(address _token, uint amount) public {\r\n      require(Fulcrum(fulcrum[_token]).mint(address(this), amount) > 0, \"FULCRUM: supply failed\");\r\n    }\r\n    function supplyCompound(address _token, uint amount) public {\r\n        require(Compound(compound[_token]).mint(amount) == 0, \"COMPOUND: supply failed\");\r\n    }\r\n\r\n    function withdrawAave(address _token, uint amount) public {\r\n        AToken(aave[_token]).redeem(amount);\r\n    }\r\n    function withdrawFulcrum(address _token, uint amount) public {\r\n        require(Fulcrum(fulcrum[_token]).burn(address(this), amount) > 0, \"FULCRUM: withdraw failed\");\r\n    }\r\n    function withdrawCompound(address _token, uint amount) public {\r\n        require(Compound(compound[_token]).redeem(amount) == 0, \"COMPOUND: withdraw failed\");\r\n    }\r\n\r\n    function addCToken(\r\n      address token,\r\n      address cToken\r\n    ) public onlyOwner {\r\n        compound[token] = cToken;\r\n    }\r\n\r\n    function addIToken(\r\n      address token,\r\n      address iToken\r\n    ) public onlyOwner {\r\n        fulcrum[token] = iToken;\r\n    }\r\n\r\n    function addAToken(\r\n      address token,\r\n      address aToken\r\n    ) public onlyOwner {\r\n        aave[token] = aToken;\r\n    }\r\n\r\n    function addDToken(\r\n      address token,\r\n      uint256 dToken\r\n    ) public onlyOwner {\r\n        dydx[token] = dToken;\r\n    }\r\n\r\n\r\n    function set_new_AAVE(address _new_AAVE) public onlyOwner {\r\n        AAVE = _new_AAVE;\r\n    }\r\n    function set_new_DYDX(address _new_DYDX) public onlyOwner {\r\n        DYDX = _new_DYDX;\r\n    }\r\n\r\n    // incase of half-way error\r\n    function inCaseTokenGetsStuck(IERC20 _TokenAddress) onlyOwner public {\r\n        uint qty = _TokenAddress.balanceOf(address(this));\r\n        _TokenAddress.transfer(msg.sender, qty);\r\n    }\r\n    // incase of half-way error\r\n    function inCaseETHGetsStuck() onlyOwner public{\r\n        (bool result, ) = msg.sender.call.value(address(this).balance)(\"\");\r\n        require(result, \"transfer of ETH failed\");\r\n    }\r\n\r\n}\r\n",
  "sourcePath": "D:/ftm/zap/contracts/InvestZAP.sol",
  "compiler": {
    "name": "solc",
    "version": "0.5.12+commit.7709ece9.Emscripten.clang"
  },
  "schemaVersion": "3.0.19",
  "updatedAt": "2020-01-29T21:11:28.953Z",
  "devdoc": {
    "methods": {
      "isOwner()": {
        "details": "Returns true if the caller is the current owner."
      },
      "owner()": {
        "details": "Returns the address of the current owner."
      },
      "renounceOwnership()": {
        "details": "Leaves the contract without owner. It will not be possible to call `onlyOwner` functions anymore. Can only be called by the current owner.      * NOTE: Renouncing ownership will leave the contract without an owner, thereby removing any functionality that is only available to the owner."
      },
      "transferOwnership(address)": {
        "details": "Transfers ownership of the contract to a new account (`newOwner`). Can only be called by the current owner."
      }
    }
  },
  "userdoc": {
    "methods": {}
  }
}