{
  "contractName": "InvestZAP",
  "abi": [
    {
      "inputs": [],
      "payable": false,
      "stateMutability": "nonpayable",
      "type": "constructor"
    },
    {
      "anonymous": false,
      "inputs": [
        {
          "indexed": true,
          "internalType": "address",
          "name": "previousOwner",
          "type": "address"
        },
        {
          "indexed": true,
          "internalType": "address",
          "name": "newOwner",
          "type": "address"
        }
      ],
      "name": "OwnershipTransferred",
      "type": "event"
    },
    {
      "constant": true,
      "inputs": [],
      "name": "AAVE",
      "outputs": [
        {
          "internalType": "address",
          "name": "",
          "type": "address"
        }
      ],
      "payable": false,
      "stateMutability": "view",
      "type": "function"
    },
    {
      "constant": true,
      "inputs": [],
      "name": "APR",
      "outputs": [
        {
          "internalType": "address",
          "name": "",
          "type": "address"
        }
      ],
      "payable": false,
      "stateMutability": "view",
      "type": "function"
    },
    {
      "constant": true,
      "inputs": [],
      "name": "DYDX",
      "outputs": [
        {
          "internalType": "address",
          "name": "",
          "type": "address"
        }
      ],
      "payable": false,
      "stateMutability": "view",
      "type": "function"
    },
    {
      "constant": true,
      "inputs": [
        {
          "internalType": "address",
          "name": "",
          "type": "address"
        }
      ],
      "name": "aave",
      "outputs": [
        {
          "internalType": "address",
          "name": "",
          "type": "address"
        }
      ],
      "payable": false,
      "stateMutability": "view",
      "type": "function"
    },
    {
      "constant": true,
      "inputs": [
        {
          "internalType": "address",
          "name": "",
          "type": "address"
        }
      ],
      "name": "compound",
      "outputs": [
        {
          "internalType": "address",
          "name": "",
          "type": "address"
        }
      ],
      "payable": false,
      "stateMutability": "view",
      "type": "function"
    },
    {
      "constant": true,
      "inputs": [
        {
          "internalType": "address",
          "name": "",
          "type": "address"
        }
      ],
      "name": "dydx",
      "outputs": [
        {
          "internalType": "uint256",
          "name": "",
          "type": "uint256"
        }
      ],
      "payable": false,
      "stateMutability": "view",
      "type": "function"
    },
    {
      "constant": true,
      "inputs": [
        {
          "internalType": "address",
          "name": "",
          "type": "address"
        }
      ],
      "name": "fulcrum",
      "outputs": [
        {
          "internalType": "address",
          "name": "",
          "type": "address"
        }
      ],
      "payable": false,
      "stateMutability": "view",
      "type": "function"
    },
    {
      "constant": true,
      "inputs": [],
      "name": "isOwner",
      "outputs": [
        {
          "internalType": "bool",
          "name": "",
          "type": "bool"
        }
      ],
      "payable": false,
      "stateMutability": "view",
      "type": "function"
    },
    {
      "constant": true,
      "inputs": [],
      "name": "owner",
      "outputs": [
        {
          "internalType": "address",
          "name": "",
          "type": "address"
        }
      ],
      "payable": false,
      "stateMutability": "view",
      "type": "function"
    },
    {
      "constant": false,
      "inputs": [],
      "name": "renounceOwnership",
      "outputs": [],
      "payable": false,
      "stateMutability": "nonpayable",
      "type": "function"
    },
    {
      "constant": false,
      "inputs": [
        {
          "internalType": "address",
          "name": "newOwner",
          "type": "address"
        }
      ],
      "name": "transferOwnership",
      "outputs": [],
      "payable": false,
      "stateMutability": "nonpayable",
      "type": "function"
    },
    {
      "constant": false,
      "inputs": [
        {
          "internalType": "address",
          "name": "_new_APR",
          "type": "address"
        }
      ],
      "name": "set_new_APR",
      "outputs": [],
      "payable": false,
      "stateMutability": "nonpayable",
      "type": "function"
    },
    {
      "constant": true,
      "inputs": [
        {
          "internalType": "address",
          "name": "_token",
          "type": "address"
        }
      ],
      "name": "recommend",
      "outputs": [
        {
          "internalType": "enum InvestZAP.CurrentLender",
          "name": "",
          "type": "uint8"
        }
      ],
      "payable": false,
      "stateMutability": "view",
      "type": "function"
    },
    {
      "constant": true,
      "inputs": [
        {
          "internalType": "address",
          "name": "_token",
          "type": "address"
        }
      ],
      "name": "balanceDydx",
      "outputs": [
        {
          "internalType": "uint256",
          "name": "",
          "type": "uint256"
        }
      ],
      "payable": false,
      "stateMutability": "view",
      "type": "function"
    },
    {
      "constant": true,
      "inputs": [
        {
          "internalType": "address",
          "name": "_token",
          "type": "address"
        },
        {
          "internalType": "address",
          "name": "_owner",
          "type": "address"
        }
      ],
      "name": "balanceDydxAddress",
      "outputs": [
        {
          "internalType": "uint256",
          "name": "",
          "type": "uint256"
        }
      ],
      "payable": false,
      "stateMutability": "view",
      "type": "function"
    },
    {
      "constant": true,
      "inputs": [
        {
          "internalType": "address",
          "name": "_token",
          "type": "address"
        }
      ],
      "name": "balanceCompound",
      "outputs": [
        {
          "internalType": "uint256",
          "name": "",
          "type": "uint256"
        }
      ],
      "payable": false,
      "stateMutability": "view",
      "type": "function"
    },
    {
      "constant": true,
      "inputs": [
        {
          "internalType": "address",
          "name": "_token",
          "type": "address"
        },
        {
          "internalType": "address",
          "name": "_owner",
          "type": "address"
        }
      ],
      "name": "balanceCompoundAddress",
      "outputs": [
        {
          "internalType": "uint256",
          "name": "",
          "type": "uint256"
        }
      ],
      "payable": false,
      "stateMutability": "view",
      "type": "function"
    },
    {
      "constant": true,
      "inputs": [
        {
          "internalType": "address",
          "name": "_token",
          "type": "address"
        }
      ],
      "name": "balanceFulcrum",
      "outputs": [
        {
          "internalType": "uint256",
          "name": "",
          "type": "uint256"
        }
      ],
      "payable": false,
      "stateMutability": "view",
      "type": "function"
    },
    {
      "constant": true,
      "inputs": [
        {
          "internalType": "address",
          "name": "_token",
          "type": "address"
        },
        {
          "internalType": "address",
          "name": "_owner",
          "type": "address"
        }
      ],
      "name": "balanceFulcrumAddress",
      "outputs": [
        {
          "internalType": "uint256",
          "name": "",
          "type": "uint256"
        }
      ],
      "payable": false,
      "stateMutability": "view",
      "type": "function"
    },
    {
      "constant": true,
      "inputs": [
        {
          "internalType": "address",
          "name": "_token",
          "type": "address"
        }
      ],
      "name": "balanceAave",
      "outputs": [
        {
          "internalType": "uint256",
          "name": "",
          "type": "uint256"
        }
      ],
      "payable": false,
      "stateMutability": "view",
      "type": "function"
    },
    {
      "constant": true,
      "inputs": [
        {
          "internalType": "address",
          "name": "_token",
          "type": "address"
        },
        {
          "internalType": "address",
          "name": "_owner",
          "type": "address"
        }
      ],
      "name": "balanceAaveAddress",
      "outputs": [
        {
          "internalType": "uint256",
          "name": "",
          "type": "uint256"
        }
      ],
      "payable": false,
      "stateMutability": "view",
      "type": "function"
    },
    {
      "constant": false,
      "inputs": [
        {
          "internalType": "address",
          "name": "_token",
          "type": "address"
        },
        {
          "internalType": "uint256",
          "name": "amount",
          "type": "uint256"
        }
      ],
      "name": "supplyDydx",
      "outputs": [
        {
          "internalType": "uint256",
          "name": "",
          "type": "uint256"
        }
      ],
      "payable": false,
      "stateMutability": "nonpayable",
      "type": "function"
    },
    {
      "constant": false,
      "inputs": [
        {
          "internalType": "address",
          "name": "_token",
          "type": "address"
        },
        {
          "internalType": "uint256",
          "name": "amount",
          "type": "uint256"
        }
      ],
      "name": "withdrawDydx",
      "outputs": [],
      "payable": false,
      "stateMutability": "nonpayable",
      "type": "function"
    },
    {
      "constant": true,
      "inputs": [
        {
          "internalType": "address",
          "name": "_token",
          "type": "address"
        }
      ],
      "name": "balance",
      "outputs": [
        {
          "internalType": "uint256",
          "name": "",
          "type": "uint256"
        }
      ],
      "payable": false,
      "stateMutability": "view",
      "type": "function"
    },
    {
      "constant": false,
      "inputs": [
        {
          "internalType": "address",
          "name": "_token",
          "type": "address"
        }
      ],
      "name": "approveToken",
      "outputs": [],
      "payable": false,
      "stateMutability": "nonpayable",
      "type": "function"
    },
    {
      "constant": false,
      "inputs": [
        {
          "internalType": "address",
          "name": "_token",
          "type": "address"
        }
      ],
      "name": "withdrawAll",
      "outputs": [],
      "payable": false,
      "stateMutability": "nonpayable",
      "type": "function"
    },
    {
      "constant": false,
      "inputs": [
        {
          "internalType": "address",
          "name": "_token",
          "type": "address"
        }
      ],
      "name": "rebalance",
      "outputs": [],
      "payable": false,
      "stateMutability": "nonpayable",
      "type": "function"
    },
    {
      "constant": false,
      "inputs": [
        {
          "internalType": "address",
          "name": "_token",
          "type": "address"
        },
        {
          "internalType": "uint256",
          "name": "amount",
          "type": "uint256"
        }
      ],
      "name": "supplyAave",
      "outputs": [],
      "payable": false,
      "stateMutability": "nonpayable",
      "type": "function"
    },
    {
      "constant": false,
      "inputs": [
        {
          "internalType": "address",
          "name": "_token",
          "type": "address"
        },
        {
          "internalType": "uint256",
          "name": "amount",
          "type": "uint256"
        }
      ],
      "name": "supplyFulcrum",
      "outputs": [],
      "payable": false,
      "stateMutability": "nonpayable",
      "type": "function"
    },
    {
      "constant": false,
      "inputs": [
        {
          "internalType": "address",
          "name": "_token",
          "type": "address"
        },
        {
          "internalType": "uint256",
          "name": "amount",
          "type": "uint256"
        }
      ],
      "name": "supplyCompound",
      "outputs": [],
      "payable": false,
      "stateMutability": "nonpayable",
      "type": "function"
    },
    {
      "constant": false,
      "inputs": [
        {
          "internalType": "address",
          "name": "_token",
          "type": "address"
        },
        {
          "internalType": "uint256",
          "name": "amount",
          "type": "uint256"
        }
      ],
      "name": "withdrawAave",
      "outputs": [],
      "payable": false,
      "stateMutability": "nonpayable",
      "type": "function"
    },
    {
      "constant": false,
      "inputs": [
        {
          "internalType": "address",
          "name": "_token",
          "type": "address"
        },
        {
          "internalType": "uint256",
          "name": "amount",
          "type": "uint256"
        }
      ],
      "name": "withdrawFulcrum",
      "outputs": [],
      "payable": false,
      "stateMutability": "nonpayable",
      "type": "function"
    },
    {
      "constant": false,
      "inputs": [
        {
          "internalType": "address",
          "name": "_token",
          "type": "address"
        },
        {
          "internalType": "uint256",
          "name": "amount",
          "type": "uint256"
        }
      ],
      "name": "withdrawCompound",
      "outputs": [],
      "payable": false,
      "stateMutability": "nonpayable",
      "type": "function"
    },
    {
      "constant": false,
      "inputs": [
        {
          "internalType": "address",
          "name": "token",
          "type": "address"
        },
        {
          "internalType": "address",
          "name": "cToken",
          "type": "address"
        }
      ],
      "name": "addCToken",
      "outputs": [],
      "payable": false,
      "stateMutability": "nonpayable",
      "type": "function"
    },
    {
      "constant": false,
      "inputs": [
        {
          "internalType": "address",
          "name": "token",
          "type": "address"
        },
        {
          "internalType": "address",
          "name": "iToken",
          "type": "address"
        }
      ],
      "name": "addIToken",
      "outputs": [],
      "payable": false,
      "stateMutability": "nonpayable",
      "type": "function"
    },
    {
      "constant": false,
      "inputs": [
        {
          "internalType": "address",
          "name": "token",
          "type": "address"
        },
        {
          "internalType": "address",
          "name": "aToken",
          "type": "address"
        }
      ],
      "name": "addAToken",
      "outputs": [],
      "payable": false,
      "stateMutability": "nonpayable",
      "type": "function"
    },
    {
      "constant": false,
      "inputs": [
        {
          "internalType": "address",
          "name": "token",
          "type": "address"
        },
        {
          "internalType": "uint256",
          "name": "dToken",
          "type": "uint256"
        }
      ],
      "name": "addDToken",
      "outputs": [],
      "payable": false,
      "stateMutability": "nonpayable",
      "type": "function"
    },
    {
      "constant": false,
      "inputs": [
        {
          "internalType": "address",
          "name": "_new_AAVE",
          "type": "address"
        }
      ],
      "name": "set_new_AAVE",
      "outputs": [],
      "payable": false,
      "stateMutability": "nonpayable",
      "type": "function"
    },
    {
      "constant": false,
      "inputs": [
        {
          "internalType": "address",
          "name": "_new_DYDX",
          "type": "address"
        }
      ],
      "name": "set_new_DYDX",
      "outputs": [],
      "payable": false,
      "stateMutability": "nonpayable",
      "type": "function"
    },
    {
      "constant": false,
      "inputs": [
        {
          "internalType": "contract IERC20",
          "name": "_TokenAddress",
          "type": "address"
        }
      ],
      "name": "inCaseTokenGetsStuck",
      "outputs": [],
      "payable": false,
      "stateMutability": "nonpayable",
      "type": "function"
    },
    {
      "constant": false,
      "inputs": [],
      "name": "inCaseETHGetsStuck",
      "outputs": [],
      "payable": false,
      "stateMutability": "nonpayable",
      "type": "function"
    }
  ],
  "bytecode": "0x60806040523480156200001157600080fd5b50620000226200099260201b60201c565b6000806101000a81548173ffffffffffffffffffffffffffffffffffffffff021916908373ffffffffffffffffffffffffffffffffffffffff1602179055506000809054906101000a900473ffffffffffffffffffffffffffffffffffffffff1673ffffffffffffffffffffffffffffffffffffffff16600073ffffffffffffffffffffffffffffffffffffffff167f8be0079c531659141344cd1fd0a4f28419497f9722a3daafe3b4186f6b6457e060405160405180910390a3739cad8ab10daa9af1a9d2b878541f41b697268eec600560006101000a81548173ffffffffffffffffffffffffffffffffffffffff021916908373ffffffffffffffffffffffffffffffffffffffff160217905550731e0447b19bb6ecfdae1e4ae1694b0c3659614e4e600760006101000a81548173ffffffffffffffffffffffffffffffffffffffff021916908373ffffffffffffffffffffffffffffffffffffffff1602179055507324a42fd28c976a61df5d00d0599c34c4f90748c8600660006101000a81548173ffffffffffffffffffffffffffffffffffffffff021916908373ffffffffffffffffffffffffffffffffffffffff16021790555062000216736b175474e89094c44da98b954eedeac495271d0f735d3a536e4d6dbd6114cc1ead35777bab948e36436200099a60201b60201c565b62000250730d8775f648430679a709e98d2b0cb6250d2887ef736c8c6b02e7b2be14d4fa6022dfd6d75921d90e4e6200099a60201b60201c565b6200028a73eeeeeeeeeeeeeeeeeeeeeeeeeeeeeeeeeeeeeeee734ddc2d193948926d02f9b1fe9e1daa0718270ed56200099a60201b60201c565b620002c4731985365e9f78359a9b6ad760e32412f4a445e86273158079ee67fce2f58472a96584a73c7ab9ac95c16200099a60201b60201c565b620002fe73a0b86991c6218b36c1d19d4a2e9eb0ce3606eb487339aa39c021dfbae8fac545936693ac917d5e75636200099a60201b60201c565b62000338732260fac5e5542a773aa44fbcfedf7c193bc2c59973c11b1268c1a384e55c48c2391d8d480264a3a7f46200099a60201b60201c565b6200037273e41d2489571d322189246dafa5ebde1f4699f49873b3319f5d18bc0d84dd1b4825dcde5d5f7266d4076200099a60201b60201c565b620003ac736b175474e89094c44da98b954eedeac495271d0f73fc1e690f61efd961294b3e1ce3313fbd8aa4f85d62000a6e60201b60201c565b620003e16e085d4780b73119b644ae5ecd22b376734da9b813057d04baef4e5800e36083717b4a034162000a6e60201b60201c565b6200041b73a0b86991c6218b36c1d19d4a2e9eb0ce3606eb48739ba00d6856a4edf4665bca2c2309936572473b7e62000a6e60201b60201c565b6200045573dac17f958d2ee523a2206206994597c13d831ec77371fc860f7d3a592a4a98740e39db31d25db65ae862000a6e60201b60201c565b6200048f7357ab1ec28d129707052df4df418d58a2d46d5f5173625ae63000f46200499120b906716420bd05924062000a6e60201b60201c565b620004c97380fb784b7ed66730e8b1dbd9820afd29931aab03737d2d3688df45ce7c552e19c27e007673da9204b862000a6e60201b60201c565b62000503730d8775f648430679a709e98d2b0cb6250d2887ef73e1ba0fb44ccb0d11b80f92f4f8ed94ca3ff51d0062000a6e60201b60201c565b6200053d73eeeeeeeeeeeeeeeeeeeeeeeeeeeeeeeeeeeeeeee733a3a65aab0dd2a17e3f1947ba16138cd37d08c0462000a6e60201b60201c565b6200057773514910771af9ca656af840dff83e8264ecf986ca73a64bd6c70cb9051f6a9ba1f163fdc07e0dfb5f8462000a6e60201b60201c565b620005b173dd974d5c2e2928dea5f71b9825b8b646686bd200739d91be44c06d373a8a226e1f3b146956083803eb62000a6e60201b60201c565b620005eb731985365e9f78359a9b6ad760e32412f4a445e8627371010a9d003445ac60c4e6a7017c1e89a477b43862000a6e60201b60201c565b62000625739f8f72aa9304c8b593d555f12ef6589cc3a579a2737deb5e830be29f91e298ba5ff1356bb7f814699862000a6e60201b60201c565b6200065f730f5d2fb29fb7d3cfee444a200298f468908cc942736fce4a401b6b80ace52baaefe4421bd188e76f6f62000a6e60201b60201c565b6200069973e41d2489571d322189246dafa5ebde1f4699f498736fb0855c404e09c47c3fbca25f08d4e41f9f062f62000a6e60201b60201c565b620006d373c011a73ee8576fb46f5e1c5751ca3b9fe0af2a6f73328c4c80bc7aca0834db37e6600a6c49e12da4de62000a6e60201b60201c565b6200070d732260fac5e5542a773aa44fbcfedf7c193bc2c59973fc4b8ed459e00e5400be803a9bb3954234fd50e362000a6e60201b60201c565b6200074773e41d2489571d322189246dafa5ebde1f4699f49873a7eb2bc82df18013ecc2a6c533fc29446442edee62000b4260201b60201c565b62000781731985365e9f78359a9b6ad760e32412f4a445e86273bd56e9477fc6997609cf45f84795efbdac642ff162000b4260201b60201c565b620007bb73dd974d5c2e2928dea5f71b9825b8b646686bd200731cc9567ea2eb740824a45f8026ccf8e46973234d62000b4260201b60201c565b620007f5732260fac5e5542a773aa44fbcfedf7c193bc2c59973ba9262578efef8b3aff7f60cd629d6cc8859c8b562000b4260201b60201c565b6200082f73a0b86991c6218b36c1d19d4a2e9eb0ce3606eb4873f013406a0b1d544238083df0b93ad0d2cbe0f65f62000b4260201b60201c565b6200086973eeeeeeeeeeeeeeeeeeeeeeeeeeeeeeeeeeeeeeee7377f973fcaf871459aa58cd81881ce453759281bc62000b4260201b60201c565b620008a3736b175474e89094c44da98b954eedeac495271d0f73493c57c4763932315a328269e1adad09653b908162000b4260201b60201c565b620008dd73514910771af9ca656af840dff83e8264ecf986ca731d496da96caf6b518b133736beca85d5c4f9cbc562000b4260201b60201c565b620009177357ab1ec28d129707052df4df418d58a2d46d5f517349f4592e641820e928f9919ef4abd92a719b4b4962000b4260201b60201c565b6200093e73eeeeeeeeeeeeeeeeeeeeeeeeeeeeeeeeeeeeeeee600062000c1660201b60201c565b6200096573a0b86991c6218b36c1d19d4a2e9eb0ce3606eb48600262000c1660201b60201c565b6200098c736b175474e89094c44da98b954eedeac495271d0f600362000c1660201b60201c565b62000d8b565b600033905090565b620009aa62000cb060201b60201c565b620009ec576040517f08c379a0000000000000000000000000000000000000000000000000000000008152600401620009e39062000d58565b60405180910390fd5b80600160008473ffffffffffffffffffffffffffffffffffffffff1673ffffffffffffffffffffffffffffffffffffffff16815260200190815260200160002060006101000a81548173ffffffffffffffffffffffffffffffffffffffff021916908373ffffffffffffffffffffffffffffffffffffffff1602179055505050565b62000a7e62000cb060201b60201c565b62000ac0576040517f08c379a000000000000000000000000000000000000000000000000000000000815260040162000ab79062000d58565b60405180910390fd5b80600360008473ffffffffffffffffffffffffffffffffffffffff1673ffffffffffffffffffffffffffffffffffffffff16815260200190815260200160002060006101000a81548173ffffffffffffffffffffffffffffffffffffffff021916908373ffffffffffffffffffffffffffffffffffffffff1602179055505050565b62000b5262000cb060201b60201c565b62000b94576040517f08c379a000000000000000000000000000000000000000000000000000000000815260040162000b8b9062000d58565b60405180910390fd5b80600260008473ffffffffffffffffffffffffffffffffffffffff1673ffffffffffffffffffffffffffffffffffffffff16815260200190815260200160002060006101000a81548173ffffffffffffffffffffffffffffffffffffffff021916908373ffffffffffffffffffffffffffffffffffffffff1602179055505050565b62000c2662000cb060201b60201c565b62000c68576040517f08c379a000000000000000000000000000000000000000000000000000000000815260040162000c5f9062000d58565b60405180910390fd5b80600460008473ffffffffffffffffffffffffffffffffffffffff1673ffffffffffffffffffffffffffffffffffffffff168152602001908152602001600020819055505050565b60008060009054906101000a900473ffffffffffffffffffffffffffffffffffffffff1673ffffffffffffffffffffffffffffffffffffffff1662000cfa6200099260201b60201c565b73ffffffffffffffffffffffffffffffffffffffff1614905090565b600062000d2560208362000d7a565b91507f4f776e61626c653a2063616c6c6572206973206e6f7420746865206f776e65726000830152602082019050919050565b6000602082019050818103600083015262000d738162000d16565b9050919050565b600082825260208201905092915050565b61391c8062000d9b6000396000f3fe608060405234801561001057600080fd5b50600436106102535760003560e01c80637891c04311610146578063a96214c2116100c3578063d88be3c011610087578063d88be3c014610714578063da07af3314610744578063e3d670d714610774578063f2fde38b146107a4578063f60a15ed146107c0578063fa09e630146107ca57610253565b8063a96214c214610648578063b4ab7bd814610678578063bd30558e146106a8578063c043fca2146106c6578063c205c6ef146106e457610253565b80638da5cb5b1161010a5780638da5cb5b146105b85780638f32d59b146105d65780638f39cbfe146105f4578063926021d714610610578063a5065b5f1461062c57610253565b80637891c0431461052c57806380b2edd814610548578063811711c714610564578063812adb06146105805780638a51f4c61461059c57610253565b80633f0ed1dd116101d45780636ff0573a116101985780636ff0573a1461048a57806370c364bd146104a6578063715018a6146104d657806373f5d1e3146104e0578063770a25f7146104fc57610253565b80633f0ed1dd146103c057806346357473146103f057806348ccda3c1461040c5780635163e32f1461042a578063599951aa1461045a57610253565b8063284dac231161021b578063284dac231461030c5780632c3329071461033c5780632c7a5ae4146103585780632e8d6e18146103745780633a532ccb1461039057610253565b8063146b9f70146102585780631d7f3c61146102745780631dc94f8c146102a457806321c28191146102d457806328157bcb146102f0575b600080fd5b610272600480360361026d9190810190612c77565b6107e6565b005b61028e60048036036102899190810190612c77565b6108af565b60405161029b91906135a3565b60405180910390f35b6102be60048036036102b99190810190612c4e565b6109a1565b6040516102cb91906135a3565b60405180910390f35b6102ee60048036036102e99190810190612c4e565b6109b4565b005b61030a60048036036103059190810190612cb3565b610aa8565b005b61032660048036036103219190810190612c4e565b610b37565b6040516103339190613389565b60405180910390f35b61035660048036036103519190810190612cb3565b610b6a565b005b610372600480360361036d9190810190612c4e565b610c00565b005b61038e60048036036103899190810190612d18565b610c8b565b005b6103aa60048036036103a59190810190612c77565b610df1565b6040516103b791906135a3565b60405180910390f35b6103da60048036036103d59190810190612cb3565b610ee3565b6040516103e791906135a3565b60405180910390f35b61040a60048036036104059190810190612c4e565b611166565b005b6104146111f1565b6040516104219190613389565b60405180910390f35b610444600480360361043f9190810190612c77565b611217565b60405161045191906135a3565b60405180910390f35b610474600480360361046f9190810190612c77565b611309565b60405161048191906135a3565b60405180910390f35b6104a4600480360361049f9190810190612cb3565b61143e565b005b6104c060048036036104bb9190810190612c4e565b6116be565b6040516104cd9190613389565b60405180910390f35b6104de6116f1565b005b6104fa60048036036104f59190810190612cb3565b6117f7565b005b61051660048036036105119190810190612c4e565b611927565b60405161052391906135a3565b60405180910390f35b61054660048036036105419190810190612cb3565b61193a565b005b610562600480360361055d9190810190612c4e565b611a08565b005b61057e60048036036105799190810190612c77565b611dc5565b005b61059a60048036036105959190810190612c4e565b611e8e565b005b6105b660048036036105b19190810190612cb3565b611f19565b005b6105c061204b565b6040516105cd9190613389565b60405180910390f35b6105de612074565b6040516105eb9190613464565b60405180910390f35b61060e60048036036106099190810190612cb3565b6120d2565b005b61062a60048036036106259190810190612c77565b612204565b005b61064660048036036106419190810190612cb3565b6122cd565b005b610662600480360361065d9190810190612c4e565b6123fd565b60405161066f91906135a3565b60405180910390f35b610692600480360361068d9190810190612c4e565b612410565b60405161069f91906135a3565b60405180910390f35b6106b0612423565b6040516106bd9190613389565b60405180910390f35b6106ce612449565b6040516106db9190613389565b60405180910390f35b6106fe60048036036106f99190810190612c4e565b61246f565b60405161070b91906135a3565b60405180910390f35b61072e60048036036107299190810190612c4e565b612487565b60405161073b919061347f565b60405180910390f35b61075e60048036036107599190810190612c4e565b6125c4565b60405161076b9190613389565b60405180910390f35b61078e60048036036107899190810190612c4e565b6125f7565b60405161079b91906135a3565b60405180910390f35b6107be60048036036107b99190810190612c4e565b612689565b005b6107c86126dc565b005b6107e460048036036107df9190810190612c4e565b6127e9565b005b6107ee612074565b61082d576040517f08c379a00000000000000000000000000000000000000000000000000000000081526004016108249061353a565b60405180910390fd5b80600160008473ffffffffffffffffffffffffffffffffffffffff1673ffffffffffffffffffffffffffffffffffffffff16815260200190815260200160002060006101000a81548173ffffffffffffffffffffffffffffffffffffffff021916908373ffffffffffffffffffffffffffffffffffffffff1602179055505050565b6000600260008473ffffffffffffffffffffffffffffffffffffffff1673ffffffffffffffffffffffffffffffffffffffff16815260200190815260200160002060009054906101000a900473ffffffffffffffffffffffffffffffffffffffff1673ffffffffffffffffffffffffffffffffffffffff166370a08231836040518263ffffffff1660e01b81526004016109499190613389565b60206040518083038186803b15801561096157600080fd5b505afa158015610975573d6000803e3d6000fd5b505050506040513d601f19601f820116820180604052506109999190810190612df9565b905092915050565b60006109ad8230611217565b9050919050565b60006109bf82612487565b90506109ca826127e9565b60006109d5836125f7565b1115610aa457600160048111156109e857fe5b8160048111156109f457fe5b1415610a0e57610a0c82610a07846125f7565b610ee3565b505b600480811115610a1a57fe5b816004811115610a2657fe5b1415610a3f57610a3e82610a39846125f7565b611f19565b5b60026004811115610a4c57fe5b816004811115610a5857fe5b1415610a7157610a7082610a6b846125f7565b6117f7565b5b60036004811115610a7e57fe5b816004811115610a8a57fe5b1415610aa357610aa282610a9d846125f7565b610b6a565b5b5b5050565b610ab0612074565b610aef576040517f08c379a0000000000000000000000000000000000000000000000000000000008152600401610ae69061353a565b60405180910390fd5b80600460008473ffffffffffffffffffffffffffffffffffffffff1673ffffffffffffffffffffffffffffffffffffffff168152602001908152602001600020819055505050565b60016020528060005260406000206000915054906101000a900473ffffffffffffffffffffffffffffffffffffffff1681565b600660009054906101000a900473ffffffffffffffffffffffffffffffffffffffff1673ffffffffffffffffffffffffffffffffffffffff1663d2d0e066838360006040518463ffffffff1660e01b8152600401610bca939291906133f6565b600060405180830381600087803b158015610be457600080fd5b505af1158015610bf8573d6000803e3d6000fd5b505050505050565b610c08612074565b610c47576040517f08c379a0000000000000000000000000000000000000000000000000000000008152600401610c3e9061353a565b60405180910390fd5b80600760006101000a81548173ffffffffffffffffffffffffffffffffffffffff021916908373ffffffffffffffffffffffffffffffffffffffff16021790555050565b610c93612074565b610cd2576040517f08c379a0000000000000000000000000000000000000000000000000000000008152600401610cc99061353a565b60405180910390fd5b60008173ffffffffffffffffffffffffffffffffffffffff166370a08231306040518263ffffffff1660e01b8152600401610d0d9190613389565b60206040518083038186803b158015610d2557600080fd5b505afa158015610d39573d6000803e3d6000fd5b505050506040513d601f19601f82011682018060405250610d5d9190810190612df9565b90508173ffffffffffffffffffffffffffffffffffffffff1663a9059cbb33836040518363ffffffff1660e01b8152600401610d9a9291906133a4565b602060405180830381600087803b158015610db457600080fd5b505af1158015610dc8573d6000803e3d6000fd5b505050506040513d601f19601f82011682018060405250610dec9190810190612cef565b505050565b6000600160008473ffffffffffffffffffffffffffffffffffffffff1673ffffffffffffffffffffffffffffffffffffffff16815260200190815260200160002060009054906101000a900473ffffffffffffffffffffffffffffffffffffffff1673ffffffffffffffffffffffffffffffffffffffff166370a08231836040518263ffffffff1660e01b8152600401610e8b9190613389565b60206040518083038186803b158015610ea357600080fd5b505afa158015610eb7573d6000803e3d6000fd5b505050506040513d601f19601f82011682018060405250610edb9190810190612df9565b905092915050565b600080600460008573ffffffffffffffffffffffffffffffffffffffff1673ffffffffffffffffffffffffffffffffffffffff16815260200190815260200160002054905060606001604051908082528060200260200182016040528015610f6557816020015b610f526129a1565b815260200190600190039081610f4a5790505b50905060405180604001604052803073ffffffffffffffffffffffffffffffffffffffff168152602001600081525081600081518110610fa157fe5b6020026020010181905250610fb46129d1565b604051806080016040528060011515815260200160006001811115610fd557fe5b815260200160006001811115610fe757fe5b8152602001868152509050610ffa612a11565b60008160000190600881111561100c57fe5b9081600881111561101957fe5b81525050600081602001818152505081816040018190525083816060018181525050308160a0019073ffffffffffffffffffffffffffffffffffffffff16908173ffffffffffffffffffffffffffffffffffffffff1681525050606060016040519080825280602002602001820160405280156110b057816020015b61109d612a7d565b8152602001906001900390816110955790505b50905081816000815181106110c157fe5b6020026020010181905250600760009054906101000a900473ffffffffffffffffffffffffffffffffffffffff1673ffffffffffffffffffffffffffffffffffffffff1663a67a6a4585836040518363ffffffff1660e01b815260040161112992919061342d565b600060405180830381600087803b15801561114357600080fd5b505af1158015611157573d6000803e3d6000fd5b50505050505050505092915050565b61116e612074565b6111ad576040517f08c379a00000000000000000000000000000000000000000000000000000000081526004016111a49061353a565b60405180910390fd5b80600560006101000a81548173ffffffffffffffffffffffffffffffffffffffff021916908373ffffffffffffffffffffffffffffffffffffffff16021790555050565b600660009054906101000a900473ffffffffffffffffffffffffffffffffffffffff1681565b6000600360008473ffffffffffffffffffffffffffffffffffffffff1673ffffffffffffffffffffffffffffffffffffffff16815260200190815260200160002060009054906101000a900473ffffffffffffffffffffffffffffffffffffffff1673ffffffffffffffffffffffffffffffffffffffff166370a08231836040518263ffffffff1660e01b81526004016112b19190613389565b60206040518083038186803b1580156112c957600080fd5b505afa1580156112dd573d6000803e3d6000fd5b505050506040513d601f19601f820116820180604052506113019190810190612df9565b905092915050565b600080600460008573ffffffffffffffffffffffffffffffffffffffff1673ffffffffffffffffffffffffffffffffffffffff168152602001908152602001600020549050611356612ae9565b600760009054906101000a900473ffffffffffffffffffffffffffffffffffffffff1673ffffffffffffffffffffffffffffffffffffffff1663c190c2ec60405180604001604052808773ffffffffffffffffffffffffffffffffffffffff1681526020016000815250846040518363ffffffff1660e01b81526004016113de92919061357a565b604080518083038186803b1580156113f557600080fd5b505afa158015611409573d6000803e3d6000fd5b505050506040513d601f19601f8201168201806040525061142d9190810190612dd0565b905080602001519250505092915050565b6000600460008473ffffffffffffffffffffffffffffffffffffffff1673ffffffffffffffffffffffffffffffffffffffff168152602001908152602001600020549050606060016040519080825280602002602001820160405280156114bf57816020015b6114ac6129a1565b8152602001906001900390816114a45790505b50905060405180604001604052803073ffffffffffffffffffffffffffffffffffffffff1681526020016000815250816000815181106114fb57fe5b602002602001018190525061150e6129d1565b60405180608001604052806001151581526020016000600181111561152f57fe5b81526020016000600181111561154157fe5b8152602001858152509050611554612a11565b60018160000190600881111561156657fe5b9081600881111561157357fe5b81525050600081602001818152505081816040018190525083816060018181525050308160a0019073ffffffffffffffffffffffffffffffffffffffff16908173ffffffffffffffffffffffffffffffffffffffff16815250506060600160405190808252806020026020018201604052801561160a57816020015b6115f7612a7d565b8152602001906001900390816115ef5790505b509050818160008151811061161b57fe5b6020026020010181905250600760009054906101000a900473ffffffffffffffffffffffffffffffffffffffff1673ffffffffffffffffffffffffffffffffffffffff1663a67a6a4585836040518363ffffffff1660e01b815260040161168392919061342d565b600060405180830381600087803b15801561169d57600080fd5b505af11580156116b1573d6000803e3d6000fd5b5050505050505050505050565b60026020528060005260406000206000915054906101000a900473ffffffffffffffffffffffffffffffffffffffff1681565b6116f9612074565b611738576040517f08c379a000000000000000000000000000000000000000000000000000000000815260040161172f9061353a565b60405180910390fd5b600073ffffffffffffffffffffffffffffffffffffffff166000809054906101000a900473ffffffffffffffffffffffffffffffffffffffff1673ffffffffffffffffffffffffffffffffffffffff167f8be0079c531659141344cd1fd0a4f28419497f9722a3daafe3b4186f6b6457e060405160405180910390a360008060006101000a81548173ffffffffffffffffffffffffffffffffffffffff021916908373ffffffffffffffffffffffffffffffffffffffff160217905550565b6000600160008473ffffffffffffffffffffffffffffffffffffffff1673ffffffffffffffffffffffffffffffffffffffff16815260200190815260200160002060009054906101000a900473ffffffffffffffffffffffffffffffffffffffff1673ffffffffffffffffffffffffffffffffffffffff1663a0712d68836040518263ffffffff1660e01b815260040161189191906135a3565b602060405180830381600087803b1580156118ab57600080fd5b505af11580156118bf573d6000803e3d6000fd5b505050506040513d601f19601f820116820180604052506118e39190810190612df9565b14611923576040517f08c379a000000000000000000000000000000000000000000000000000000000815260040161191a906134da565b60405180910390fd5b5050565b600061193382306108af565b9050919050565b600360008373ffffffffffffffffffffffffffffffffffffffff1673ffffffffffffffffffffffffffffffffffffffff16815260200190815260200160002060009054906101000a900473ffffffffffffffffffffffffffffffffffffffff1673ffffffffffffffffffffffffffffffffffffffff1663db006a75826040518263ffffffff1660e01b81526004016119d291906135a3565b600060405180830381600087803b1580156119ec57600080fd5b505af1158015611a00573d6000803e3d6000fd5b505050505050565b8073ffffffffffffffffffffffffffffffffffffffff1663095ea7b3600160008473ffffffffffffffffffffffffffffffffffffffff1673ffffffffffffffffffffffffffffffffffffffff16815260200190815260200160002060009054906101000a900473ffffffffffffffffffffffffffffffffffffffff167fffffffffffffffffffffffffffffffffffffffffffffffffffffffffffffffff6040518363ffffffff1660e01b8152600401611ac29291906133cd565b602060405180830381600087803b158015611adc57600080fd5b505af1158015611af0573d6000803e3d6000fd5b505050506040513d601f19601f82011682018060405250611b149190810190612cef565b508073ffffffffffffffffffffffffffffffffffffffff1663095ea7b3600760009054906101000a900473ffffffffffffffffffffffffffffffffffffffff167fffffffffffffffffffffffffffffffffffffffffffffffffffffffffffffffff6040518363ffffffff1660e01b8152600401611b929291906133cd565b602060405180830381600087803b158015611bac57600080fd5b505af1158015611bc0573d6000803e3d6000fd5b505050506040513d601f19601f82011682018060405250611be49190810190612cef565b508073ffffffffffffffffffffffffffffffffffffffff1663095ea7b3600660009054906101000a900473ffffffffffffffffffffffffffffffffffffffff167fffffffffffffffffffffffffffffffffffffffffffffffffffffffffffffffff6040518363ffffffff1660e01b8152600401611c629291906133cd565b602060405180830381600087803b158015611c7c57600080fd5b505af1158015611c90573d6000803e3d6000fd5b505050506040513d601f19601f82011682018060405250611cb49190810190612cef565b508073ffffffffffffffffffffffffffffffffffffffff1663095ea7b3600260008473ffffffffffffffffffffffffffffffffffffffff1673ffffffffffffffffffffffffffffffffffffffff16815260200190815260200160002060009054906101000a900473ffffffffffffffffffffffffffffffffffffffff167fffffffffffffffffffffffffffffffffffffffffffffffffffffffffffffffff6040518363ffffffff1660e01b8152600401611d6f9291906133cd565b602060405180830381600087803b158015611d8957600080fd5b505af1158015611d9d573d6000803e3d6000fd5b505050506040513d601f19601f82011682018060405250611dc19190810190612cef565b5050565b611dcd612074565b611e0c576040517f08c379a0000000000000000000000000000000000000000000000000000000008152600401611e039061353a565b60405180910390fd5b80600360008473ffffffffffffffffffffffffffffffffffffffff1673ffffffffffffffffffffffffffffffffffffffff16815260200190815260200160002060006101000a81548173ffffffffffffffffffffffffffffffffffffffff021916908373ffffffffffffffffffffffffffffffffffffffff1602179055505050565b611e96612074565b611ed5576040517f08c379a0000000000000000000000000000000000000000000000000000000008152600401611ecc9061353a565b60405180910390fd5b80600660006101000a81548173ffffffffffffffffffffffffffffffffffffffff021916908373ffffffffffffffffffffffffffffffffffffffff16021790555050565b6000600260008473ffffffffffffffffffffffffffffffffffffffff1673ffffffffffffffffffffffffffffffffffffffff16815260200190815260200160002060009054906101000a900473ffffffffffffffffffffffffffffffffffffffff1673ffffffffffffffffffffffffffffffffffffffff166340c10f1930846040518363ffffffff1660e01b8152600401611fb59291906133cd565b602060405180830381600087803b158015611fcf57600080fd5b505af1158015611fe3573d6000803e3d6000fd5b505050506040513d601f19601f820116820180604052506120079190810190612df9565b11612047576040517f08c379a000000000000000000000000000000000000000000000000000000000815260040161203e9061355a565b60405180910390fd5b5050565b60008060009054906101000a900473ffffffffffffffffffffffffffffffffffffffff16905090565b60008060009054906101000a900473ffffffffffffffffffffffffffffffffffffffff1673ffffffffffffffffffffffffffffffffffffffff166120b661286b565b73ffffffffffffffffffffffffffffffffffffffff1614905090565b6000600260008473ffffffffffffffffffffffffffffffffffffffff1673ffffffffffffffffffffffffffffffffffffffff16815260200190815260200160002060009054906101000a900473ffffffffffffffffffffffffffffffffffffffff1673ffffffffffffffffffffffffffffffffffffffff16639dc29fac30846040518363ffffffff1660e01b815260040161216e9291906133cd565b602060405180830381600087803b15801561218857600080fd5b505af115801561219c573d6000803e3d6000fd5b505050506040513d601f19601f820116820180604052506121c09190810190612df9565b11612200576040517f08c379a00000000000000000000000000000000000000000000000000000000081526004016121f79061351a565b60405180910390fd5b5050565b61220c612074565b61224b576040517f08c379a00000000000000000000000000000000000000000000000000000000081526004016122429061353a565b60405180910390fd5b80600260008473ffffffffffffffffffffffffffffffffffffffff1673ffffffffffffffffffffffffffffffffffffffff16815260200190815260200160002060006101000a81548173ffffffffffffffffffffffffffffffffffffffff021916908373ffffffffffffffffffffffffffffffffffffffff1602179055505050565b6000600160008473ffffffffffffffffffffffffffffffffffffffff1673ffffffffffffffffffffffffffffffffffffffff16815260200190815260200160002060009054906101000a900473ffffffffffffffffffffffffffffffffffffffff1673ffffffffffffffffffffffffffffffffffffffff1663db006a75836040518263ffffffff1660e01b815260040161236791906135a3565b602060405180830381600087803b15801561238157600080fd5b505af1158015612395573d6000803e3d6000fd5b505050506040513d601f19601f820116820180604052506123b99190810190612df9565b146123f9576040517f08c379a00000000000000000000000000000000000000000000000000000000081526004016123f09061349a565b60405180910390fd5b5050565b60006124098230611309565b9050919050565b600061241c8230610df1565b9050919050565b600560009054906101000a900473ffffffffffffffffffffffffffffffffffffffff1681565b600760009054906101000a900473ffffffffffffffffffffffffffffffffffffffff1681565b60046020528060005260406000206000915090505481565b6000806000806000600560009054906101000a900473ffffffffffffffffffffffffffffffffffffffff1673ffffffffffffffffffffffffffffffffffffffff1663d88be3c0876040518263ffffffff1660e01b81526004016124ea9190613389565b60006040518083038186803b15801561250257600080fd5b505afa158015612516573d6000803e3d6000fd5b505050506040513d6000823e3d601f19601f8201168201806040525061253f9190810190612d41565b945094509450945050600080905080851115612559578490505b80841115612565578390505b80831115612571578290505b8082111561257d578190505b60008090508282141561258f57600190505b8382141561259c57600390505b848214156125a957600490505b858214156125b657600290505b809650505050505050919050565b60036020528060005260406000206000915054906101000a900473ffffffffffffffffffffffffffffffffffffffff1681565b60008173ffffffffffffffffffffffffffffffffffffffff166370a08231306040518263ffffffff1660e01b81526004016126329190613389565b60206040518083038186803b15801561264a57600080fd5b505afa15801561265e573d6000803e3d6000fd5b505050506040513d601f19601f820116820180604052506126829190810190612df9565b9050919050565b612691612074565b6126d0576040517f08c379a00000000000000000000000000000000000000000000000000000000081526004016126c79061353a565b60405180910390fd5b6126d981612873565b50565b6126e4612074565b612723576040517f08c379a000000000000000000000000000000000000000000000000000000000815260040161271a9061353a565b60405180910390fd5b60003373ffffffffffffffffffffffffffffffffffffffff163073ffffffffffffffffffffffffffffffffffffffff163160405161276090613374565b60006040518083038185875af1925050503d806000811461279d576040519150601f19603f3d011682016040523d82523d6000602084013e6127a2565b606091505b50509050806127e6576040517f08c379a00000000000000000000000000000000000000000000000000000000081526004016127dd906134fa565b60405180910390fd5b50565b60006127f482612410565b9050600081111561280a5761280982826122cd565b5b612813826123fd565b9050600081111561282957612828828261143e565b5b61283282611927565b905060008111156128485761284782826120d2565b5b612851826109a1565b9050600081111561286757612866828261193a565b5b5050565b600033905090565b600073ffffffffffffffffffffffffffffffffffffffff168173ffffffffffffffffffffffffffffffffffffffff1614156128e3576040517f08c379a00000000000000000000000000000000000000000000000000000000081526004016128da906134ba565b60405180910390fd5b8073ffffffffffffffffffffffffffffffffffffffff166000809054906101000a900473ffffffffffffffffffffffffffffffffffffffff1673ffffffffffffffffffffffffffffffffffffffff167f8be0079c531659141344cd1fd0a4f28419497f9722a3daafe3b4186f6b6457e060405160405180910390a3806000806101000a81548173ffffffffffffffffffffffffffffffffffffffff021916908373ffffffffffffffffffffffffffffffffffffffff16021790555050565b6040518060400160405280600073ffffffffffffffffffffffffffffffffffffffff168152602001600081525090565b6040518060800160405280600015158152602001600060018111156129f257fe5b815260200160006001811115612a0457fe5b8152602001600081525090565b60405180610100016040528060006008811115612a2a57fe5b815260200160008152602001612a3e612b05565b81526020016000815260200160008152602001600073ffffffffffffffffffffffffffffffffffffffff16815260200160008152602001606081525090565b60405180610100016040528060006008811115612a9657fe5b815260200160008152602001612aaa612b05565b81526020016000815260200160008152602001600073ffffffffffffffffffffffffffffffffffffffff16815260200160008152602001606081525090565b6040518060400160405280600015158152602001600081525090565b604051806080016040528060001515815260200160006001811115612b2657fe5b815260200160006001811115612b3857fe5b8152602001600081525090565b600081359050612b548161387d565b92915050565b600081519050612b6981613894565b92915050565b600081359050612b7e816138ab565b92915050565b600082601f830112612b9557600080fd5b8151612ba8612ba3826135eb565b6135be565b91508082526020830160208301858383011115612bc457600080fd5b612bcf838284613805565b50505092915050565b600060408284031215612bea57600080fd5b612bf460406135be565b90506000612c0484828501612b5a565b6000830152506020612c1884828501612c39565b60208301525092915050565b600081359050612c33816138c2565b92915050565b600081519050612c48816138c2565b92915050565b600060208284031215612c6057600080fd5b6000612c6e84828501612b45565b91505092915050565b60008060408385031215612c8a57600080fd5b6000612c9885828601612b45565b9250506020612ca985828601612b45565b9150509250929050565b60008060408385031215612cc657600080fd5b6000612cd485828601612b45565b9250506020612ce585828601612c24565b9150509250929050565b600060208284031215612d0157600080fd5b6000612d0f84828501612b5a565b91505092915050565b600060208284031215612d2a57600080fd5b6000612d3884828501612b6f565b91505092915050565b600080600080600060a08688031215612d5957600080fd5b600086015167ffffffffffffffff811115612d7357600080fd5b612d7f88828901612b84565b9550506020612d9088828901612c39565b9450506040612da188828901612c39565b9350506060612db288828901612c39565b9250506080612dc388828901612c39565b9150509295509295909350565b600060408284031215612de257600080fd5b6000612df084828501612bd8565b91505092915050565b600060208284031215612e0b57600080fd5b6000612e1984828501612c39565b91505092915050565b6000612e2e83836131f0565b905092915050565b6000612e4283836132f8565b60408301905092915050565b612e5781613775565b82525050565b612e66816136c1565b82525050565b612e75816136c1565b82525050565b6000612e8682613637565b612e908185613672565b935083602082028501612ea285613617565b8060005b85811015612ede5784840389528151612ebf8582612e22565b9450612eca83613658565b925060208a01995050600181019050612ea6565b50829750879550505050505092915050565b6000612efb82613642565b612f058185613683565b9350612f1083613627565b8060005b83811015612f41578151612f288882612e36565b9750612f3383613665565b925050600181019050612f14565b5085935050505092915050565b612f57816136d3565b82525050565b612f66816136d3565b82525050565b6000612f778261364d565b612f818185613694565b9350612f91818560208601613805565b612f9a81613838565b840191505092915050565b612fae81613787565b82525050565b612fbd81613799565b82525050565b612fcc816137ab565b82525050565b612fdb816137bd565b82525050565b612fea816137cf565b82525050565b6000612ffd6019836136b0565b91507f434f4d504f554e443a207769746864726177206661696c6564000000000000006000830152602082019050919050565b600061303d6026836136b0565b91507f4f776e61626c653a206e6577206f776e657220697320746865207a65726f206160008301527f64647265737300000000000000000000000000000000000000000000000000006020830152604082019050919050565b60006130a36017836136b0565b91507f434f4d504f554e443a20737570706c79206661696c65640000000000000000006000830152602082019050919050565b60006130e36016836136b0565b91507f7472616e73666572206f6620455448206661696c6564000000000000000000006000830152602082019050919050565b60006131236018836136b0565b91507f46554c4352554d3a207769746864726177206661696c656400000000000000006000830152602082019050919050565b60006131636020836136b0565b91507f4f776e61626c653a2063616c6c6572206973206e6f7420746865206f776e65726000830152602082019050919050565b60006131a36000836136a5565b9150600082019050919050565b60006131bd6016836136b0565b91507f46554c4352554d3a20737570706c79206661696c6564000000000000000000006000830152602082019050919050565b6000610160830160008301516132096000860182612fa5565b50602083015161321c6020860182613356565b50604083015161322f60408601826132a3565b50606083015161324260c0860182613356565b50608083015161325560e0860182613356565b5060a0830151613269610100860182612e5d565b5060c083015161327d610120860182613356565b5060e08301518482036101408601526132968282612f6c565b9150508091505092915050565b6080820160008201516132b96000850182612f4e565b5060208201516132cc6020850182612fb4565b5060408201516132df6040850182612fc3565b5060608201516132f26060850182613356565b50505050565b60408201600082015161330e6000850182612e5d565b5060208201516133216020850182613356565b50505050565b60408201600082015161333d6000850182612e5d565b5060208201516133506020850182613356565b50505050565b61335f8161376b565b82525050565b61336e8161376b565b82525050565b600061337f82613196565b9150819050919050565b600060208201905061339e6000830184612e6c565b92915050565b60006040820190506133b96000830185612e4e565b6133c66020830184613365565b9392505050565b60006040820190506133e26000830185612e6c565b6133ef6020830184613365565b9392505050565b600060608201905061340b6000830186612e6c565b6134186020830185613365565b6134256040830184612fe1565b949350505050565b600060408201905081810360008301526134478185612ef0565b9050818103602083015261345b8184612e7b565b90509392505050565b60006020820190506134796000830184612f5d565b92915050565b60006020820190506134946000830184612fd2565b92915050565b600060208201905081810360008301526134b381612ff0565b9050919050565b600060208201905081810360008301526134d381613030565b9050919050565b600060208201905081810360008301526134f381613096565b9050919050565b60006020820190508181036000830152613513816130d6565b9050919050565b6000602082019050818103600083015261353381613116565b9050919050565b6000602082019050818103600083015261355381613156565b9050919050565b60006020820190508181036000830152613573816131b0565b9050919050565b600060608201905061358f6000830185613327565b61359c6040830184613365565b9392505050565b60006020820190506135b86000830184613365565b92915050565b6000604051905081810181811067ffffffffffffffff821117156135e157600080fd5b8060405250919050565b600067ffffffffffffffff82111561360257600080fd5b601f19601f8301169050602081019050919050565b6000819050602082019050919050565b6000819050602082019050919050565b600081519050919050565b600081519050919050565b600081519050919050565b6000602082019050919050565b6000602082019050919050565b600082825260208201905092915050565b600082825260208201905092915050565b600082825260208201905092915050565b600081905092915050565b600082825260208201905092915050565b60006136cc8261374b565b9050919050565b60008115159050919050565b60006136ea826136c1565b9050919050565b60008190506136ff82613849565b919050565b600081905061371282613856565b919050565b600081905061372582613863565b919050565b600081905061373882613870565b919050565b600061ffff82169050919050565b600073ffffffffffffffffffffffffffffffffffffffff82169050919050565b6000819050919050565b6000613780826137e1565b9050919050565b6000613792826136f1565b9050919050565b60006137a482613704565b9050919050565b60006137b682613717565b9050919050565b60006137c88261372a565b9050919050565b60006137da8261373d565b9050919050565b60006137ec826137f3565b9050919050565b60006137fe8261374b565b9050919050565b60005b83811015613823578082015181840152602081019050613808565b83811115613832576000848401525b50505050565b6000601f19601f8301169050919050565b6009811061385357fe5b50565b6002811061386057fe5b50565b6002811061386d57fe5b50565b6005811061387a57fe5b50565b613886816136c1565b811461389157600080fd5b50565b61389d816136d3565b81146138a857600080fd5b50565b6138b4816136df565b81146138bf57600080fd5b50565b6138cb8161376b565b81146138d657600080fd5b5056fea365627a7a723158205ac15ab70dfb881de2bfd22b46b5a7ee543cb0b88490e49defbd481ab78551946c6578706572696d656e74616cf564736f6c634300050c0040",
  "source": "// File: @openzeppelin\\contracts\\token\\ERC20\\IERC20.sol\r\n\r\npragma solidity ^0.5.0;\r\npragma experimental ABIEncoderV2;\r\n\r\ninterface IERC20 {\r\n\r\n    function totalSupply() external view returns (uint256);\r\n    function balanceOf(address account) external view returns (uint256);\r\n    function name() external view returns (string memory);\r\n    function symbol() external view returns (string memory);\r\n    function transfer(address recipient, uint256 amount) external returns (bool);\r\n    function approve(address spender, uint256 amount) external returns (bool);\r\n}\r\n\r\n// File: @openzeppelin\\contracts\\GSN\\Context.sol\r\n\r\npragma solidity ^0.5.0;\r\n\r\n/*\r\n * @dev Provides information about the current execution context, including the\r\n * sender of the transaction and its data. While these are generally available\r\n * via msg.sender and msg.data, they should not be accessed in such a direct\r\n * manner, since when dealing with GSN meta-transactions the account sending and\r\n * paying for execution may not be the actual sender (as far as an application\r\n * is concerned).\r\n *\r\n * This contract is only required for intermediate, library-like contracts.\r\n */\r\ncontract Context {\r\n    // Empty internal constructor, to prevent people from mistakenly deploying\r\n    // an instance of this contract, which should be used via inheritance.\r\n    constructor () internal { }\r\n    // solhint-disable-previous-line no-empty-blocks\r\n\r\n    function _msgSender() internal view returns (address payable) {\r\n        return msg.sender;\r\n    }\r\n\r\n    function _msgData() internal view returns (bytes memory) {\r\n        this; // silence state mutability warning without generating bytecode - see https://github.com/ethereum/solidity/issues/2691\r\n        return msg.data;\r\n    }\r\n}\r\n\r\n// File: @openzeppelin\\contracts\\ownership\\Ownable.sol\r\n\r\npragma solidity ^0.5.0;\r\n\r\n/**\r\n * @dev Contract module which provides a basic access control mechanism, where\r\n * there is an account (an owner) that can be granted exclusive access to\r\n * specific functions.\r\n *\r\n * This module is used through inheritance. It will make available the modifier\r\n * `onlyOwner`, which can be applied to your functions to restrict their use to\r\n * the owner.\r\n */\r\ncontract Ownable is Context {\r\n    address private _owner;\r\n\r\n    event OwnershipTransferred(address indexed previousOwner, address indexed newOwner);\r\n\r\n    /**\r\n     * @dev Initializes the contract setting the deployer as the initial owner.\r\n     */\r\n    constructor () internal {\r\n        _owner = _msgSender();\r\n        emit OwnershipTransferred(address(0), _owner);\r\n    }\r\n\r\n    /**\r\n     * @dev Returns the address of the current owner.\r\n     */\r\n    function owner() public view returns (address) {\r\n        return _owner;\r\n    }\r\n\r\n    /**\r\n     * @dev Throws if called by any account other than the owner.\r\n     */\r\n    modifier onlyOwner() {\r\n        require(isOwner(), \"Ownable: caller is not the owner\");\r\n        _;\r\n    }\r\n\r\n    /**\r\n     * @dev Returns true if the caller is the current owner.\r\n     */\r\n    function isOwner() public view returns (bool) {\r\n        return _msgSender() == _owner;\r\n    }\r\n\r\n    /**\r\n     * @dev Leaves the contract without owner. It will not be possible to call\r\n     * `onlyOwner` functions anymore. Can only be called by the current owner.\r\n     *\r\n     * NOTE: Renouncing ownership will leave the contract without an owner,\r\n     * thereby removing any functionality that is only available to the owner.\r\n     */\r\n    function renounceOwnership() public onlyOwner {\r\n        emit OwnershipTransferred(_owner, address(0));\r\n        _owner = address(0);\r\n    }\r\n\r\n    /**\r\n     * @dev Transfers ownership of the contract to a new account (`newOwner`).\r\n     * Can only be called by the current owner.\r\n     */\r\n    function transferOwnership(address newOwner) public onlyOwner {\r\n        _transferOwnership(newOwner);\r\n    }\r\n\r\n    /**\r\n     * @dev Transfers ownership of the contract to a new account (`newOwner`).\r\n     */\r\n    function _transferOwnership(address newOwner) internal {\r\n        require(newOwner != address(0), \"Ownable: new owner is the zero address\");\r\n        emit OwnershipTransferred(_owner, newOwner);\r\n        _owner = newOwner;\r\n    }\r\n}\r\n\r\n// File: @openzeppelin\\contracts\\math\\SafeMath.sol\r\n\r\npragma solidity ^0.5.0;\r\n\r\n/**\r\n * @dev Wrappers over Solidity's arithmetic operations with added overflow\r\n * checks.\r\n *\r\n * Arithmetic operations in Solidity wrap on overflow. This can easily result\r\n * in bugs, because programmers usually assume that an overflow raises an\r\n * error, which is the standard behavior in high level programming languages.\r\n * `SafeMath` restores this intuition by reverting the transaction when an\r\n * operation overflows.\r\n *\r\n * Using this library instead of the unchecked operations eliminates an entire\r\n * class of bugs, so it's recommended to use it always.\r\n */\r\nlibrary SafeMath {\r\n    /**\r\n     * @dev Returns the addition of two unsigned integers, reverting on\r\n     * overflow.\r\n     *\r\n     * Counterpart to Solidity's `+` operator.\r\n     *\r\n     * Requirements:\r\n     * - Addition cannot overflow.\r\n     */\r\n    function add(uint256 a, uint256 b) internal pure returns (uint256) {\r\n        uint256 c = a + b;\r\n        require(c >= a, \"SafeMath: addition overflow\");\r\n\r\n        return c;\r\n    }\r\n\r\n    /**\r\n     * @dev Returns the subtraction of two unsigned integers, reverting on\r\n     * overflow (when the result is negative).\r\n     *\r\n     * Counterpart to Solidity's `-` operator.\r\n     *\r\n     * Requirements:\r\n     * - Subtraction cannot overflow.\r\n     */\r\n    function sub(uint256 a, uint256 b) internal pure returns (uint256) {\r\n        return sub(a, b, \"SafeMath: subtraction overflow\");\r\n    }\r\n\r\n    /**\r\n     * @dev Returns the subtraction of two unsigned integers, reverting with custom message on\r\n     * overflow (when the result is negative).\r\n     *\r\n     * Counterpart to Solidity's `-` operator.\r\n     *\r\n     * Requirements:\r\n     * - Subtraction cannot overflow.\r\n     *\r\n     * _Available since v2.4.0._\r\n     */\r\n    function sub(uint256 a, uint256 b, string memory errorMessage) internal pure returns (uint256) {\r\n        require(b <= a, errorMessage);\r\n        uint256 c = a - b;\r\n\r\n        return c;\r\n    }\r\n\r\n    /**\r\n     * @dev Returns the multiplication of two unsigned integers, reverting on\r\n     * overflow.\r\n     *\r\n     * Counterpart to Solidity's `*` operator.\r\n     *\r\n     * Requirements:\r\n     * - Multiplication cannot overflow.\r\n     */\r\n    function mul(uint256 a, uint256 b) internal pure returns (uint256) {\r\n        // Gas optimization: this is cheaper than requiring 'a' not being zero, but the\r\n        // benefit is lost if 'b' is also tested.\r\n        // See: https://github.com/OpenZeppelin/openzeppelin-contracts/pull/522\r\n        if (a == 0) {\r\n            return 0;\r\n        }\r\n\r\n        uint256 c = a * b;\r\n        require(c / a == b, \"SafeMath: multiplication overflow\");\r\n\r\n        return c;\r\n    }\r\n\r\n    /**\r\n     * @dev Returns the integer division of two unsigned integers. Reverts on\r\n     * division by zero. The result is rounded towards zero.\r\n     *\r\n     * Counterpart to Solidity's `/` operator. Note: this function uses a\r\n     * `revert` opcode (which leaves remaining gas untouched) while Solidity\r\n     * uses an invalid opcode to revert (consuming all remaining gas).\r\n     *\r\n     * Requirements:\r\n     * - The divisor cannot be zero.\r\n     */\r\n    function div(uint256 a, uint256 b) internal pure returns (uint256) {\r\n        return div(a, b, \"SafeMath: division by zero\");\r\n    }\r\n\r\n    /**\r\n     * @dev Returns the integer division of two unsigned integers. Reverts with custom message on\r\n     * division by zero. The result is rounded towards zero.\r\n     *\r\n     * Counterpart to Solidity's `/` operator. Note: this function uses a\r\n     * `revert` opcode (which leaves remaining gas untouched) while Solidity\r\n     * uses an invalid opcode to revert (consuming all remaining gas).\r\n     *\r\n     * Requirements:\r\n     * - The divisor cannot be zero.\r\n     *\r\n     * _Available since v2.4.0._\r\n     */\r\n    function div(uint256 a, uint256 b, string memory errorMessage) internal pure returns (uint256) {\r\n        // Solidity only automatically asserts when dividing by 0\r\n        require(b > 0, errorMessage);\r\n        uint256 c = a / b;\r\n        // assert(a == b * c + a % b); // There is no case in which this doesn't hold\r\n\r\n        return c;\r\n    }\r\n\r\n    /**\r\n     * @dev Returns the remainder of dividing two unsigned integers. (unsigned integer modulo),\r\n     * Reverts when dividing by zero.\r\n     *\r\n     * Counterpart to Solidity's `%` operator. This function uses a `revert`\r\n     * opcode (which leaves remaining gas untouched) while Solidity uses an\r\n     * invalid opcode to revert (consuming all remaining gas).\r\n     *\r\n     * Requirements:\r\n     * - The divisor cannot be zero.\r\n     */\r\n    function mod(uint256 a, uint256 b) internal pure returns (uint256) {\r\n        return mod(a, b, \"SafeMath: modulo by zero\");\r\n    }\r\n\r\n    /**\r\n     * @dev Returns the remainder of dividing two unsigned integers. (unsigned integer modulo),\r\n     * Reverts with custom message when dividing by zero.\r\n     *\r\n     * Counterpart to Solidity's `%` operator. This function uses a `revert`\r\n     * opcode (which leaves remaining gas untouched) while Solidity uses an\r\n     * invalid opcode to revert (consuming all remaining gas).\r\n     *\r\n     * Requirements:\r\n     * - The divisor cannot be zero.\r\n     *\r\n     * _Available since v2.4.0._\r\n     */\r\n    function mod(uint256 a, uint256 b, string memory errorMessage) internal pure returns (uint256) {\r\n        require(b != 0, errorMessage);\r\n        return a % b;\r\n    }\r\n}\r\n\r\n// File: @openzeppelin\\contracts\\utils\\Address.sol\r\n\r\npragma solidity ^0.5.5;\r\n\r\n/**\r\n * @dev Collection of functions related to the address type\r\n */\r\nlibrary Address {\r\n    /**\r\n     * @dev Returns true if `account` is a contract.\r\n     *\r\n     * This test is non-exhaustive, and there may be false-negatives: during the\r\n     * execution of a contract's constructor, its address will be reported as\r\n     * not containing a contract.\r\n     *\r\n     * IMPORTANT: It is unsafe to assume that an address for which this\r\n     * function returns false is an externally-owned account (EOA) and not a\r\n     * contract.\r\n     */\r\n    function isContract(address account) internal view returns (bool) {\r\n        // This method relies in extcodesize, which returns 0 for contracts in\r\n        // construction, since the code is only stored at the end of the\r\n        // constructor execution.\r\n\r\n        // According to EIP-1052, 0x0 is the value returned for not-yet created accounts\r\n        // and 0xc5d2460186f7233c927e7db2dcc703c0e500b653ca82273b7bfad8045d85a470 is returned\r\n        // for accounts without code, i.e. `keccak256('')`\r\n        bytes32 codehash;\r\n        bytes32 accountHash = 0xc5d2460186f7233c927e7db2dcc703c0e500b653ca82273b7bfad8045d85a470;\r\n        // solhint-disable-next-line no-inline-assembly\r\n        assembly { codehash := extcodehash(account) }\r\n        return (codehash != 0x0 && codehash != accountHash);\r\n    }\r\n\r\n    /**\r\n     * @dev Converts an `address` into `address payable`. Note that this is\r\n     * simply a type cast: the actual underlying value is not changed.\r\n     *\r\n     * _Available since v2.4.0._\r\n     */\r\n    function toPayable(address account) internal pure returns (address payable) {\r\n        return address(uint160(account));\r\n    }\r\n\r\n    /**\r\n     * @dev Replacement for Solidity's `transfer`: sends `amount` wei to\r\n     * `recipient`, forwarding all available gas and reverting on errors.\r\n     *\r\n     * https://eips.ethereum.org/EIPS/eip-1884[EIP1884] increases the gas cost\r\n     * of certain opcodes, possibly making contracts go over the 2300 gas limit\r\n     * imposed by `transfer`, making them unable to receive funds via\r\n     * `transfer`. {sendValue} removes this limitation.\r\n     *\r\n     * https://diligence.consensys.net/posts/2019/09/stop-using-soliditys-transfer-now/[Learn more].\r\n     *\r\n     * IMPORTANT: because control is transferred to `recipient`, care must be\r\n     * taken to not create reentrancy vulnerabilities. Consider using\r\n     * {ReentrancyGuard} or the\r\n     * https://solidity.readthedocs.io/en/v0.5.11/security-considerations.html#use-the-checks-effects-interactions-pattern[checks-effects-interactions pattern].\r\n     *\r\n     * _Available since v2.4.0._\r\n     */\r\n    function sendValue(address payable recipient, uint256 amount) internal {\r\n        require(address(this).balance >= amount, \"Address: insufficient balance\");\r\n\r\n        // solhint-disable-next-line avoid-call-value\r\n        (bool success, ) = recipient.call.value(amount)(\"\");\r\n        require(success, \"Address: unable to send value, recipient may have reverted\");\r\n    }\r\n}\r\n\r\n\r\ninterface Compound {\r\n    function approve ( address spender, uint256 amount ) external returns ( bool );\r\n    function mint ( uint256 mintAmount ) external returns ( uint256 );\r\n    function balanceOf(address _owner) external view returns (uint256 balance);\r\n    function transfer(address _to, uint _value) external returns (bool success);\r\n    function redeem(uint256 redeemTokens) external returns (uint256);\r\n}\r\n\r\ninterface Fulcrum {\r\n    function mintWithEther(address receiver, uint256 maxPriceAllowed) external payable returns (uint256 mintAmount);\r\n    function mint(address receiver, uint256 amount) external payable returns (uint256 mintAmount);\r\n    function burnToEther(address receiver, uint256 burnAmount, uint256 minPriceAllowed) external returns (uint256 loanAmountPaid);\r\n    function burn(address receiver, uint256 burnAmount) external returns (uint256 loanAmountPaid);\r\n    function balanceOf(address _owner) external view returns (uint256 balance);\r\n}\r\n\r\ninterface ILendingPoolAddressesProvider {\r\n    function getLendingPool() external view returns (address);\r\n}\r\n\r\ninterface Aave {\r\n    function deposit(address _reserve, uint256 _amount, uint16 _referralCode) external;\r\n    function redeemUnderlying(address _reserve, address payable _user, uint256 _amount, uint256 _aTokenBalanceAfterRedeem) external;\r\n    function balanceOf(address _owner) external view returns (uint256 balance);\r\n}\r\n\r\ninterface AToken {\r\n    function redeem(uint256 amount) external;\r\n    function balanceOf(address _owner) external view returns (uint256 balance);\r\n}\r\n\r\ninterface IIEarnManager {\r\n    function recommend(address _token) external view returns (\r\n      string memory choice,\r\n      uint256 capr,\r\n      uint256 iapr,\r\n      uint256 aapr,\r\n      uint256 dapr\r\n    );\r\n}\r\n\r\ncontract Structs {\r\n    struct Val {\r\n        uint256 value;\r\n    }\r\n\r\n    struct TotalPar {\r\n        uint128 borrow;\r\n        uint128 supply;\r\n    }\r\n\r\n    enum ActionType {\r\n        Deposit,   // supply tokens\r\n        Withdraw,  // borrow tokens\r\n        Transfer,  // transfer balance between accounts\r\n        Buy,       // buy an amount of some token (externally)\r\n        Sell,      // sell an amount of some token (externally)\r\n        Trade,     // trade tokens against another account\r\n        Liquidate, // liquidate an undercollateralized or expiring account\r\n        Vaporize,  // use excess tokens to zero-out a completely negative account\r\n        Call       // send arbitrary data to an address\r\n    }\r\n\r\n    enum AssetDenomination {\r\n        Wei, // the amount is denominated in wei\r\n        Par  // the amount is denominated in par\r\n    }\r\n\r\n    enum AssetReference {\r\n        Delta, // the amount is given as a delta from the current value\r\n        Target // the amount is given as an exact number to end up at\r\n    }\r\n\r\n    struct AssetAmount {\r\n        bool sign; // true if positive\r\n        AssetDenomination denomination;\r\n        AssetReference ref;\r\n        uint256 value;\r\n    }\r\n\r\n    struct ActionArgs {\r\n        ActionType actionType;\r\n        uint256 accountId;\r\n        AssetAmount amount;\r\n        uint256 primaryMarketId;\r\n        uint256 secondaryMarketId;\r\n        address otherAddress;\r\n        uint256 otherAccountId;\r\n        bytes data;\r\n    }\r\n\r\n    struct Info {\r\n        address owner;  // The address that owns the account\r\n        uint256 number; // A nonce that allows a single address to control many accounts\r\n    }\r\n\r\n    struct Wei {\r\n        bool sign; // true if positive\r\n        uint256 value;\r\n    }\r\n}\r\n\r\ncontract DyDx is Structs {\r\n    function getEarningsRate() public view returns (Val memory);\r\n    function getMarketInterestRate(uint256 marketId) public view returns (Val memory);\r\n    function getMarketTotalPar(uint256 marketId) public view returns (TotalPar memory);\r\n    function getAccountWei(Info memory account, uint256 marketId) public view returns (Wei memory);\r\n    function operate(Info[] memory, ActionArgs[] memory) public;\r\n}\r\n\r\ncontract InvestZAP is Ownable, Structs {\r\n    using SafeMath for uint;\r\n    using Address for address;\r\n\r\n    mapping(address => address) public compound;\r\n    mapping(address => address) public fulcrum;\r\n    mapping(address => address) public aave;\r\n    mapping(address => uint256) public dydx;\r\n\r\n    address public APR;\r\n    address public AAVE;\r\n    address public DYDX;\r\n\r\n    enum CurrentLender {\r\n        NONE,\r\n        DYDX,\r\n        COMPOUND,\r\n        AAVE,\r\n        FULCRUM\r\n    }\r\n\r\n    constructor() public {\r\n        APR = address(0x9CaD8AB10daA9AF1a9D2B878541f41b697268eEC);\r\n        DYDX = address(0x1E0447b19BB6EcFdAe1e4AE1694b0C3659614e4e);\r\n        AAVE = address(0x24a42fD28C976A61Df5D00D0599C34c4f90748c8);\r\n\r\n        addCToken(0x6B175474E89094C44Da98b954EedeAC495271d0F, 0x5d3a536E4D6DbD6114cc1Ead35777bAB948E3643); // cDAI\r\n        addCToken(0x0D8775F648430679A709E98d2b0Cb6250d2887EF, 0x6C8c6b02E7b2BE14d4fA6022Dfd6d75921D90E4E); // cBAT\r\n        addCToken(0xEeeeeEeeeEeEeeEeEeEeeEEEeeeeEeeeeeeeEEeE, 0x4Ddc2D193948926D02f9B1fE9e1daa0718270ED5); // cETH\r\n        addCToken(0x1985365e9f78359a9B6AD760e32412f4a445E862, 0x158079Ee67Fce2f58472A96584A73C7Ab9AC95c1); // cREP\r\n        addCToken(0xA0b86991c6218b36c1d19D4a2e9Eb0cE3606eB48, 0x39AA39c021dfbaE8faC545936693aC917d5E7563); // cUSDC\r\n        addCToken(0x2260FAC5E5542a773Aa44fBCfeDf7C193bc2C599, 0xC11b1268C1A384e55C48c2391d8d480264A3A7F4); // cWBTC\r\n        addCToken(0xE41d2489571d322189246DaFA5ebDe1F4699F498, 0xB3319f5D18Bc0D84dD1b4825Dcde5d5f7266d407); // cZRX\r\n\r\n        addAToken(0x6B175474E89094C44Da98b954EedeAC495271d0F, 0xfC1E690f61EFd961294b3e1Ce3313fBD8aa4f85d); // aDAI\r\n        addAToken(0x0000000000085d4780B73119b644AE5ecd22b376, 0x4DA9b813057D04BAef4e5800E36083717b4a0341); // aTUSD\r\n        addAToken(0xA0b86991c6218b36c1d19D4a2e9Eb0cE3606eB48, 0x9bA00D6856a4eDF4665BcA2C2309936572473B7E); // aUSDC\r\n        addAToken(0xdAC17F958D2ee523a2206206994597C13D831ec7, 0x71fc860F7D3A592A4a98740e39dB31d25db65ae8); // aUSDT\r\n        addAToken(0x57Ab1ec28D129707052df4dF418D58a2D46d5f51, 0x625aE63000f46200499120B906716420bd059240); // aSUSD\r\n        addAToken(0x80fB784B7eD66730e8b1DBd9820aFD29931aab03, 0x7D2D3688Df45Ce7C552E19c27e007673da9204B8); // aLEND\r\n        addAToken(0x0D8775F648430679A709E98d2b0Cb6250d2887EF, 0xE1BA0FB44CCb0D11b80F92f4f8Ed94CA3fF51D00); // aBAT\r\n        addAToken(0xEeeeeEeeeEeEeeEeEeEeeEEEeeeeEeeeeeeeEEeE, 0x3a3A65aAb0dd2A17E3F1947bA16138cd37d08c04); // aETH\r\n        addAToken(0x514910771AF9Ca656af840dff83E8264EcF986CA, 0xA64BD6C70Cb9051F6A9ba1F163Fdc07E0DfB5F84); // aLINK\r\n        addAToken(0xdd974D5C2e2928deA5F71b9825b8b646686BD200, 0x9D91BE44C06d373a8a226E1f3b146956083803eB); // aKNC\r\n        addAToken(0x1985365e9f78359a9B6AD760e32412f4a445E862, 0x71010A9D003445aC60C4e6A7017c1E89A477B438); // aREP\r\n        addAToken(0x9f8F72aA9304c8B593d555F12eF6589cC3A579A2, 0x7deB5e830be29F91E298ba5FF1356BB7f8146998); // aMKR\r\n        addAToken(0x0F5D2fB29fb7d3CFeE444a200298f468908cC942, 0x6FCE4A401B6B80ACe52baAefE4421Bd188e76F6f); // aMANA\r\n        addAToken(0xE41d2489571d322189246DaFA5ebDe1F4699F498, 0x6Fb0855c404E09c47C3fBCA25f08d4E41f9F062f); // aZRX\r\n        addAToken(0xC011a73ee8576Fb46F5E1c5751cA3B9Fe0af2a6F, 0x328C4c80BC7aCa0834Db37e6600A6c49E12Da4DE); // aSNX\r\n        addAToken(0x2260FAC5E5542a773Aa44fBCfeDf7C193bc2C599, 0xFC4B8ED459e00e5400be803A9BB3954234FD50e3); // aWBTC\r\n\r\n        addIToken(0xE41d2489571d322189246DaFA5ebDe1F4699F498, 0xA7Eb2bc82df18013ecC2A6C533fc29446442EDEe); // iZRX\r\n        addIToken(0x1985365e9f78359a9B6AD760e32412f4a445E862, 0xBd56E9477Fc6997609Cf45F84795eFbDAC642Ff1); // iREP\r\n        addIToken(0xdd974D5C2e2928deA5F71b9825b8b646686BD200, 0x1cC9567EA2eB740824a45F8026cCF8e46973234D); // iKNC\r\n        addIToken(0x2260FAC5E5542a773Aa44fBCfeDf7C193bc2C599, 0xBA9262578EFef8b3aFf7F60Cd629d6CC8859C8b5); // iWBTC\r\n        addIToken(0xA0b86991c6218b36c1d19D4a2e9Eb0cE3606eB48, 0xF013406A0B1d544238083DF0B93ad0d2cBE0f65f); // iUSDC\r\n        addIToken(0xEeeeeEeeeEeEeeEeEeEeeEEEeeeeEeeeeeeeEEeE, 0x77f973FCaF871459aa58cd81881Ce453759281bC); // iETH\r\n        addIToken(0x6B175474E89094C44Da98b954EedeAC495271d0F, 0x493C57C4763932315A328269E1ADaD09653B9081); // iDAI\r\n        addIToken(0x514910771AF9Ca656af840dff83E8264EcF986CA, 0x1D496da96caf6b518b133736beca85D5C4F9cBc5); // iLINK\r\n        addIToken(0x57Ab1ec28D129707052df4dF418D58a2D46d5f51, 0x49f4592E641820e928F9919Ef4aBd92a719B4b49); // iSUSD\r\n\r\n        addDToken(0xEeeeeEeeeEeEeeEeEeEeeEEEeeeeEeeeeeeeEEeE, 0); // dETH\r\n        addDToken(0xA0b86991c6218b36c1d19D4a2e9Eb0cE3606eB48, 2); // dUSDC\r\n        addDToken(0x6B175474E89094C44Da98b954EedeAC495271d0F, 3); // dDAI\r\n    }\r\n\r\n    function set_new_APR(address _new_APR) public onlyOwner {\r\n        APR = _new_APR;\r\n    }\r\n\r\n    function recommend(address _token) public view returns (CurrentLender) {\r\n      (,uint256 capr,uint256 iapr,uint256 aapr,uint256 dapr) = IIEarnManager(APR).recommend(_token);\r\n      uint256 max = 0;\r\n      if (capr > max) {\r\n        max = capr;\r\n      }\r\n      if (iapr > max) {\r\n        max = iapr;\r\n      }\r\n      if (aapr > max) {\r\n        max = aapr;\r\n      }\r\n      if (dapr > max) {\r\n        max = dapr;\r\n      }\r\n\r\n      CurrentLender newLender = CurrentLender.NONE;\r\n      if (max == dapr) {\r\n        newLender = CurrentLender.DYDX;\r\n      }\r\n      if (max == aapr) {\r\n        newLender = CurrentLender.AAVE;\r\n      }\r\n      if (max == iapr) {\r\n        newLender = CurrentLender.FULCRUM;\r\n      }\r\n      if (max == capr) {\r\n        newLender = CurrentLender.COMPOUND;\r\n      }\r\n      return newLender;\r\n    }\r\n\r\n    function balanceDydx(address _token) public view returns (uint256) {\r\n        return balanceDydxAddress(_token, address(this));\r\n    }\r\n    function balanceDydxAddress(address _token, address _owner) public view returns (uint256) {\r\n        uint256 marketID = dydx[_token];\r\n        Wei memory bal = DyDx(DYDX).getAccountWei(Info(_owner, 0), marketID);\r\n        return bal.value;\r\n    }\r\n    function balanceCompound(address _token) public view returns (uint256) {\r\n        return balanceCompoundAddress(_token, address(this));\r\n    }\r\n    function balanceCompoundAddress(address _token, address _owner) public view returns (uint256) {\r\n        return Compound(compound[_token]).balanceOf(_owner);\r\n    }\r\n    function balanceFulcrum(address _token) public view returns (uint256) {\r\n      return balanceFulcrumAddress(_token, address(this));\r\n    }\r\n    function balanceFulcrumAddress(address _token, address _owner) public view returns (uint256) {\r\n      return Fulcrum(fulcrum[_token]).balanceOf(_owner);\r\n    }\r\n    function balanceAave(address _token) public view returns (uint256) {\r\n      return balanceAaveAddress(_token, address(this));\r\n    }\r\n    function balanceAaveAddress(address _token, address _owner) public view returns (uint256) {\r\n      return AToken(aave[_token]).balanceOf(_owner);\r\n    }\r\n\r\n    function supplyDydx(address _token, uint256 amount) public returns(uint) {\r\n        uint256 marketID = dydx[_token];\r\n\r\n        Info[] memory infos = new Info[](1);\r\n        infos[0] = Info(address(this), 0);\r\n\r\n        AssetAmount memory amt = AssetAmount(true, AssetDenomination.Wei, AssetReference.Delta, amount);\r\n        ActionArgs memory act;\r\n        act.actionType = ActionType.Deposit;\r\n        act.accountId = 0;\r\n        act.amount = amt;\r\n        act.primaryMarketId = marketID;\r\n        act.otherAddress = address(this);\r\n\r\n        ActionArgs[] memory args = new ActionArgs[](1);\r\n        args[0] = act;\r\n\r\n        DyDx(DYDX).operate(infos, args);\r\n    }\r\n\r\n    function withdrawDydx(address _token, uint256 amount) public {\r\n        uint256 marketID = dydx[_token];\r\n\r\n        Info[] memory infos = new Info[](1);\r\n        infos[0] = Info(address(this), 0);\r\n\r\n        AssetAmount memory amt = AssetAmount(true, AssetDenomination.Wei, AssetReference.Delta, amount);\r\n        ActionArgs memory act;\r\n        act.actionType = ActionType.Withdraw;\r\n        act.accountId = 0;\r\n        act.amount = amt;\r\n        act.primaryMarketId = marketID;\r\n        act.otherAddress = address(this);\r\n\r\n        ActionArgs[] memory args = new ActionArgs[](1);\r\n        args[0] = act;\r\n\r\n        DyDx(DYDX).operate(infos, args);\r\n    }\r\n\r\n    function balance(address _token) public view returns (uint256) {\r\n      return IERC20(_token).balanceOf(address(this));\r\n    }\r\n\r\n    function approveToken(address _token) public {\r\n        IERC20(_token).approve(compound[_token], uint(-1)); //also add to constructor\r\n        IERC20(_token).approve(DYDX, uint(-1));\r\n        IERC20(_token).approve(AAVE, uint(-1));\r\n        IERC20(_token).approve(fulcrum[_token], uint(-1));\r\n    }\r\n\r\n    /*function transferAll(address _token) public {\r\n      uint256 amount = balanceCompoundAddress(_token, msg.sender);\r\n      if (amount > 0) {\r\n        transferCompound(_token, amount);\r\n      }\r\n      amount = balanceDydxAddress(_token, msg.sender);\r\n      if (amount > 0) {\r\n        transferDydx(_token, amount);\r\n      }\r\n      amount = balanceFulcrumAddress(_token, msg.sender);\r\n      if (amount > 0) {\r\n        transferFulcrum(_token, amount);\r\n      }\r\n      amount = balanceAaveAddress(_token, msg.sender);\r\n      if (amount > 0) {\r\n        transferAave(_token, amount);\r\n      }\r\n    }*/\r\n\r\n    function withdrawAll(address _token) public {\r\n      uint256 amount = balanceCompound(_token);\r\n      if (amount > 0) {\r\n        withdrawCompound(_token, amount);\r\n      }\r\n      amount = balanceDydx(_token);\r\n      if (amount > 0) {\r\n        withdrawDydx(_token, amount);\r\n      }\r\n      amount = balanceFulcrum(_token);\r\n      if (amount > 0) {\r\n        withdrawFulcrum(_token, amount);\r\n      }\r\n      amount = balanceAave(_token);\r\n      if (amount > 0) {\r\n        withdrawAave(_token, amount);\r\n      }\r\n    }\r\n\r\n    function rebalance(address _token) public {\r\n      CurrentLender newLender = recommend(_token);\r\n\r\n      withdrawAll(_token);\r\n\r\n      if (balance(_token) > 0) {\r\n        if (newLender == CurrentLender.DYDX) {\r\n          supplyDydx(_token, balance(_token));\r\n        }\r\n        if (newLender == CurrentLender.FULCRUM) {\r\n          supplyFulcrum(_token, balance(_token));\r\n        }\r\n        if (newLender == CurrentLender.COMPOUND) {\r\n          supplyCompound(_token, balance(_token));\r\n        }\r\n        if (newLender == CurrentLender.AAVE) {\r\n          supplyAave(_token, balance(_token));\r\n        }\r\n      }\r\n    }\r\n\r\n    function supplyAave(address _token, uint amount) public {\r\n      Aave(AAVE).deposit(_token, amount, 0);\r\n    }\r\n    function supplyFulcrum(address _token, uint amount) public {\r\n      require(Fulcrum(fulcrum[_token]).mint(address(this), amount) > 0, \"FULCRUM: supply failed\");\r\n    }\r\n    function supplyCompound(address _token, uint amount) public {\r\n        require(Compound(compound[_token]).mint(amount) == 0, \"COMPOUND: supply failed\");\r\n    }\r\n\r\n    function withdrawAave(address _token, uint amount) public {\r\n        AToken(aave[_token]).redeem(amount);\r\n    }\r\n    function withdrawFulcrum(address _token, uint amount) public {\r\n        require(Fulcrum(fulcrum[_token]).burn(address(this), amount) > 0, \"FULCRUM: withdraw failed\");\r\n    }\r\n    function withdrawCompound(address _token, uint amount) public {\r\n        require(Compound(compound[_token]).redeem(amount) == 0, \"COMPOUND: withdraw failed\");\r\n    }\r\n\r\n    function addCToken(\r\n      address token,\r\n      address cToken\r\n    ) public onlyOwner {\r\n        compound[token] = cToken;\r\n    }\r\n\r\n    function addIToken(\r\n      address token,\r\n      address iToken\r\n    ) public onlyOwner {\r\n        fulcrum[token] = iToken;\r\n    }\r\n\r\n    function addAToken(\r\n      address token,\r\n      address aToken\r\n    ) public onlyOwner {\r\n        aave[token] = aToken;\r\n    }\r\n\r\n    function addDToken(\r\n      address token,\r\n      uint256 dToken\r\n    ) public onlyOwner {\r\n        dydx[token] = dToken;\r\n    }\r\n\r\n\r\n    function set_new_AAVE(address _new_AAVE) public onlyOwner {\r\n        AAVE = _new_AAVE;\r\n    }\r\n    function set_new_DYDX(address _new_DYDX) public onlyOwner {\r\n        DYDX = _new_DYDX;\r\n    }\r\n\r\n    // incase of half-way error\r\n    function inCaseTokenGetsStuck(IERC20 _TokenAddress) onlyOwner public {\r\n        uint qty = _TokenAddress.balanceOf(address(this));\r\n        _TokenAddress.transfer(msg.sender, qty);\r\n    }\r\n    // incase of half-way error\r\n    function inCaseETHGetsStuck() onlyOwner public{\r\n        (bool result, ) = msg.sender.call.value(address(this).balance)(\"\");\r\n        require(result, \"transfer of ETH failed\");\r\n    }\r\n\r\n}\r\n",
  "sourcePath": "D:/ftm/zap/contracts/InvestZAP.sol",
  "compiler": {
    "name": "solc",
    "version": "0.5.12+commit.7709ece9.Emscripten.clang"
  },
  "schemaVersion": "3.0.19",
  "updatedAt": "2020-01-29T21:24:12.949Z",
  "devdoc": {
    "methods": {
      "isOwner()": {
        "details": "Returns true if the caller is the current owner."
      },
      "owner()": {
        "details": "Returns the address of the current owner."
      },
      "renounceOwnership()": {
        "details": "Leaves the contract without owner. It will not be possible to call `onlyOwner` functions anymore. Can only be called by the current owner.      * NOTE: Renouncing ownership will leave the contract without an owner, thereby removing any functionality that is only available to the owner."
      },
      "transferOwnership(address)": {
        "details": "Transfers ownership of the contract to a new account (`newOwner`). Can only be called by the current owner."
      }
    }
  },
  "userdoc": {
    "methods": {}
  }
}